:020000040800F2
:100000000020002059060008A1050008A3050008EB
:1000100000000000000000000000000000000000E0
:10002000000000000000000000000000A50500081E
:100030000000000000000000A7050008A905000856
:10004000A9060008A9060008A9060008A9060008D4
:10005000A9060008A9060008B1050008A9060008BD
:1000600000000000A9060008A9060008A90600086B
:10007000A9060008A906000800000000A90600085B
:1000800000000000A90600080000000000000000B9
:10009000A906000800000000A9060008A90600083B
:1000A000A9060008A9060008A9060008A906000874
:1000B000A9060008A90600080000000000000000D2
:1000C000002243088B4274D303098B425FD3030A97
:1000D0008B4244D3030B8B4228D3030C8B420DD3AA
:1000E000FF22090212BA030C8B4202D31212090238
:1000F00065D0030B8B4219D300E0090AC30B8B4276
:1001000001D3CB03C01A5241830B8B4201D38B0323
:10011000C01A5241430B8B4201D34B03C01A5241C8
:10012000030B8B4201D30B03C01A5241C30A8B420B
:1001300001D3CB02C01A5241830A8B4201D38B02F6
:10014000C01A5241430A8B4201D34B02C01A52419A
:10015000030A8B4201D30B02C01A5241CDD2C3090C
:100160008B4201D3CB01C01A524183098B4201D388
:100170008B01C01A524143098B4201D34B01C01A73
:10018000524103098B4201D30B01C01A5241C308EB
:100190008B4201D3CB00C01A524183088B4201D35A
:1001A0008B00C01A524143088B4201D34B00C01A46
:1001B0005241411A00D20146524110467047FFE7B2
:1001C00001B5002000F006F802BDC0460029F7D0B6
:1001D00076E770477047C046002B11D1002A0FD137
:1001E000002900D1002802D00021C943080007B42B
:1001F000024802A14018029003BDC046D9FFFFFF8C
:1002000003B4684601B5029801F07CFD019B9E464F
:1002100002B00CBC7047C04610B5002903D100F0F5
:1002200007F8203002E0080000F002F810BDC046D8
:100230001C2101231B04984201D3000C10391B0A16
:10024000984201D3000A08391B09984201D30009DA
:10025000043902A2105C40187047C0460403020231
:100260000101010100000000000000000448054BEE
:1002700010B5834203D0044B002B00D0984710BD2B
:100280001000002010000020000000000648074970
:10029000091A8B10C90FC91810B5491003D0044BA7
:1002A000002B00D0984710BD100000201000002047
:1002B0000000000010B5074C2378002B09D1FFF790
:1002C000D5FF054B002B02D0044800E000BF0123FE
:1002D000237010BD10000020000000008C200008DA
:1002E000054B10B5002B03D00449054800E000BFC2
:1002F000FFF7CCFF10BDC046000000001400002036
:100300008C200008F0B589B01422002103A801F068
:10031000C5FD314BDA6A01263243DA62DA6A3240CD
:100320000192019ADA6A02242243DA62DB6A2340EC
:100330000293029BA025ED050022E421280000F095
:1003400034FC264F00220321380000F02EFC042349
:100350000393049605940024069403A9280000F052
:1003600057FB0823039388235B030493059403A995
:10037000280000F04DFBE0230393049605940694B7
:1003800003A9280000F044FB03230393049605947B
:10039000069403A9380000F03BFB80235B00039325
:1003A0000494059403A9280000F032FB80231B026B
:1003B000039384239B030493059403A9280000F06E
:1003C00027FB00220021062000F00EFB062000F093
:1003D0000FFB09B0F0BDC046001002400004005001
:1003E00010B51448144B0360144B43600023836022
:1003F0000122C260036143618361C361036200F053
:10040000F1FB00280CD10B48002100F051FC002822
:1004100009D10848002100F077FC002806D110BD62
:1004200000F03EF8EFE700F03BF8F2E700F038F8B4
:10043000F5E7C0462C00002000540040583D500015
:1004400010B586B004001422002101A801F026FD99
:100450002268104B9A4201D006B010BD0E4CE26AE1
:1004600002231A43E262E26A13400093009BC02316
:100470000193AE3B02930F3B0493023B059301A90A
:10048000064800F0C5FAA26B80239B031343A363C5
:10049000E2E7C04600540040001002400004005053
:1004A00072B6FEE700B59BB0342200210DA801F022
:1004B000F5FC1422002108A801F0F0FC1C22002108
:1004C00001A801F0EBFC1A490A681A4B1A40802374
:1004D0001B0113430B6002230D93013B10930F3359
:1004E0001193002316930DA800F090FC002819D159
:1004F0000F2308930E3B099300230A930B930C934D
:10050000002108A800F008FF00280DD1092301935D
:1005100000230393069301A801F010F8002805D1E9
:100520001BB000BDFFF7BCFFFFF7BAFFFFF7B8FF36
:1005300000700040FFE7FFFF00B583B000F0D0F986
:10054000FFF7B0FFFFF7DEFEFFF74AFF00F036F8D7
:1005500000F000F90A48FF2300930023C822C821B5
:1005600000F05CF9FF2000F07BF9A0200421C00519
:1005700000F021FBFA20400000F0D8F9F5E7C04672
:1005800080000020054B5A6B01210A435A63996B86
:10059000802252050A439A637047C0460010024009
:1005A000FEE7FEE77047704710B500F0ADF910BDEB
:1005B00010B5082000F008FB10BD704710B50C48BE
:1005C0000C4B0360E1235B02436000238360C36044
:1005D00003610C2242618361C3610362436201F0E3
:1005E0002DFB002800D110BDFFF75AFFFBE7C046E6
:1005F000081400200038014010B586B00400142211
:10060000002101A801F04AFC2268114B9A4201D056
:1006100006B010BD0F4B596B8022D2010A435A63BA
:10062000D96A01221143D962DB6A1A400092009B09
:10063000C023DB00019302230293013304930133AF
:100640000593A02001A9C00500F0E2F9E0E7C0464B
:1006500000380140001002400D488546FFF7ADFF0D
:100660000C480D490D4A002302E0D458C45004330D
:10067000C4188C42F9D30A4A0A4C002301E01360E3
:100680000432A242FBD301F05DFCFFF755FFFEE709
:10069000002000200000002010000020242100087D
:1006A0001000002050160020FEE770B50400A020C6
:1006B00000228021C00500F078FA00250FE0A0207C
:1006C00000222021C00500F070FAA0200122402164
:1006D000C00500F06AFA6400E4B20135EDB2072DFE
:1006E0000FD8A02000224021C00500F05EFA63B2BE
:1006F000002BE4DAA02001222021C00500F055FAE9
:10070000E3E7A02001228021C00500F04EFA70BD71
:1007100070B50400074D00220121280000F045FAC1
:100720002000FFF7C2FF01220121280000F03DFA5E
:1007300070BDC0460004005010B5FFF7B6FF10BDF5
:1007400010B58021A0204900C00500F027FA00283C
:10075000F7D110BD10B5304C00220221200000F06E
:1007600024FA142000F0E2F801220221200000F017
:100770001CFA142000F0DAF8FFF7E2FF1220FFF76E
:10078000C7FFFFF7DDFF0120FFF7C2FFC720FFF71C
:10079000D3FF0020FFF7D0FF0120FFF7CDFF11208E
:1007A000FFF7B6FF0120FFF7C7FF4420FFF7B0FFB8
:1007B0000020FFF7C1FF1820FFF7BEFF4520FFF71D
:1007C000A7FFC720FFF7B8FF0020FFF7B5FF002005
:1007D000FFF7B2FF0020FFF7AFFF3C20FFF798FFC5
:1007E0000520FFF7A9FF1820FFF792FF8020FFF7F1
:1007F000A3FF4E20FFF78CFF0020FFF79DFF4F2047
:10080000FFF786FFC720FFF797FF0020FFF794FF51
:10081000FFF796FF10BDC0460004005030B50F4CE6
:10082000002525602060E16022610398606148072F
:100830000CD1CC080948C46102628361002B08D046
:10084000B42B06D0054B5A60996005E0CC08013402
:10085000F0E7024B59609A6030BDC046901400200A
:1008600010B500240AE063439B1808490968C8547E
:100870000132064BDB699342F5D80134034B1B6A06
:10088000A34201D90022F4E710BDC0469014002015
:1008900010B504000F4B1978FA208000FFF710FC08
:1008A00001000D4B1868FFF70BFC00F0ADF80028B5
:1008B0000DD1032C01D901200AE0013000222100D2
:1008C000404200F091F8054B1C60002000E0012040
:1008D00010BDC046040000200000002008000020D9
:1008E00010B5084A136840210B4313600320FFF73B
:1008F000CFFF041E02D00124200010BDFFF742FEEE
:10090000FAE7C04600200240034A1168034B1B78F7
:100910005B1813607047C046B41400200400002028
:10092000014B18687047C046B414002070B504002D
:10093000FFF7F6FF0500631C02D0044B1B78E41898
:10094000FFF7EEFF401BA042FAD370BD0400002069
:1009500070B5002811DB8308134DC0339B005C5930
:1009600003221040C000FC3216008640B4438901C7
:100970000A40824022435A5170BD0F230340083B76
:100980009B0806339B00094A944663445C68032233
:100990001040C000FC3215008540AC4389010A407C
:1009A000824022435A60E7E700E100E000ED00E00A
:1009B000013880235B0498420FD2094A50600948ED
:1009C000036A1B021B0AC02109060B4303620023B2
:1009D000936007331360002070470120FCE7C04696
:1009E00010E000E000ED00E010B5FFF7B1FF10BD32
:1009F000002805DB1F22024001239340014A1360B7
:100A00007047C04600E100E010B5FFF7D1FF10BD10
:100A1000F0B5002356E086685F000324BC40A6437F
:100A2000CC68BC4034438460446894434E683609C3
:100A3000012232409A402243426053E0DE080836E9
:100A4000B600375805321A4092000F249440A7434D
:100A50000C69944022003A43325056E0052600E0EB
:100A60000026A64034003C4302329200444E94518A
:100A7000444A9768EA433E00AE434C68E40201D51D
:100A80003E002E433F4CA660E7683E0016404C688F
:100A9000A40201D53E002E433A4CE66067683E0052
:100AA00016404C68A40301D53E002E43354C6660C9
:100AB000266832404C68E40301D52A003243314CA9
:100AC000226001330C682200DA4057D001229A409C
:100AD000250015401442F4D04E6803243440013CF4
:100AE000012C98D94C6803222240032A08D0C468FC
:100AF0005E000322B24094438A68B2402243C2603F
:100B00004C6803222240022A98D004685E00032227
:100B10001700B740BC434F683A40B24022430260DE
:100B20004C68C02292021442CBD0174C626B012653
:100B3000324362639A08941CA400114EA7590324FF
:100B40001C40A4000F26A640B743A026F605B042DD
:100B500086D00E4EB0420BD00D4EB0420AD00D4E94
:100B6000B04209D00C4EB04200D177E7062678E7B4
:100B7000012676E7022674E7032672E7F0BDC04639
:100B80000000014000040140001002400004005039
:100B900000080050000C0050001C005003690B427C
:100BA00001D0012070470020FCE7002A01D08161BC
:100BB00070478162FCE7426913000B401B049143BC
:100BC0000B4383617047704710B5054B5B69184252
:100BD00000D110BD024B5861FFF7F5FFF9E7C046A1
:100BE0000004014010B5041E59D04123C35C002B02
:100BF00043D041232422E2542268136801218B430D
:100C000013606368226827490B4013612268936868
:100C100025490B409360E368012B34D0A16822681A
:100C200084231B020B439360E368022B32D02268BB
:100C300051681E4B0B4353602268D3681A490B401E
:100C4000D360236962691343A269120221681343C6
:100C5000CB60E369216A22680B4313602268136842
:100C600001210B4313600023636441221F31A1540F
:100C700023630132A354002010BD40330022C2542C
:100C8000FFF7DEFBB5E7A168226880231B020B4358
:100C90009360C9E72368802212015A60C7E70120E8
:100CA000EAE7C046FFFFFFF0FF7FFFFF0080000282
:100CB000F0B54123C35C202B20D12033C35C012B32
:100CC0001ED04024012202554125242343550668A5
:100CD000336893433360066833680A4F3B403360A0
:100CE000066833680B43336001680B6813430B607D
:100CF00020234355002303550020F0BD0220FCE7CC
:100D00000220FAE7FFEFFFFFF0B54123C35C202B81
:100D10001ED12033C35C012B1CD04024012202557C
:100D2000412524234355066833689343336006689E
:100D30003368094F3B4009021943316001680B6871
:100D400013430B6020234355002303550020F0BDBF
:100D50000220FCE70220FAE7FFF0FFFF10B5264B68
:100D6000DA680C231340082B42D00C2B07D0042B3D
:100D700034D1214B1B68DB063CD5204837E0910C71
:100D80000F230B401E49C85C920D03231A40541CCC
:100D9000194BDB68DB0309D51A4A0023002100F058
:100DA00083FF22000023FFF717FA20E0124B1B6895
:100DB000DB0609D5114A0023002100F075FF22004F
:100DC0000023FFF709FA12E00F4A0023002100F088
:100DD0006BFF22000023FFF7FFF908E0064B5A687B
:100DE000520B07231340013380200002984010BDAE
:100DF0000448FCE70448FAE70010024000093D00FF
:100E0000A420000800127A000024F400F0B583B09A
:100E1000041E00D15DE2C14BDA680C251540DE6886
:100E200080235B021E400368DB0736D5082D2CD0DB
:100E30000C2D28D063688022520293424DD0A0220C
:100E4000D202934250D0B54B1A68B5490A401A6095
:100E50001A68802149020A400192019A1A68B14930
:100E60000A401A606368002B4AD0FFF759FD07005B
:100E7000AA4B1B689B0310D4FFF752FDC01B6428CC
:100E8000F6D9032026E2002ED4D0A44B1B689B0386
:100E900003D56368002B00D11EE223689B0765D54C
:100EA000E368042D3CD00C2D38D0002B00D1B0E0ED
:100EB0009A490A680920824313430B60FFF730FD0B
:100EC0000600964B1B685B0700D599E0FFF728FDED
:100ED000801B0228F5D90320FCE1904A1168802389
:100EE0005B020B431360BDE78C4B19688022D20272
:100EF0000A431A601968802252020A431A60B1E755
:100F0000FFF70EFD0700854B1B689B03C5D5FFF758
:100F100007FDC01B6428F6D90320DBE1002EC4D1F5
:100F20007E4A1268520702D5002B00D1D6E17B4ED3
:100F300072687D490A40216909020A437260326879
:100F400009218A4313433360FFF708FFF26812094F
:100F50000F231340754AD35CD840754B1860754B0E
:100F60001868FFF795FC002800D0B3E12368DB0682
:100F70002DD5002D60D1694B1B689B0503D5A36956
:100F8000002B00D1ACE1654A53686B490B40216AE4
:100F90000B43536053681B021B0AE16909060B43AC
:100FA0005360216A490B013180231B028B40D168B9
:100FB00009090F220A405D498A5CD3405C4A1360EC
:100FC0005C4B1868FFF764FC002800D082E12368BE
:100FD0001B077DD56369002B67D0504A136D012133
:100FE0000B431365FFF79CFC06004C4B1B6D9B07E6
:100FF0006ED4FFF795FC801B0228F6D9032069E127
:1010000046494B68484A13402269120213434B6019
:10101000ACE7424A136801218B431360FFF780FC61
:1010200006003E4B1B685B07A0D5FFF779FC801BD1
:101030000228F6D903204DE1A369002B22D0374ABC
:10104000116880235B000B431360FFF769FC060007
:10105000324B1B689B0506D4FFF762FC801B0228FD
:10106000F6D9032036E12D4A536833490B40216AF3
:101070000B43536053681B021B0AE16909060B43CB
:101080005360A4E7254A13682C490B401360FFF70F
:1010900047FC0600214B1B689B0598D5FFF740FCD9
:1010A000801B0228F6D9032014E11C4A136D01218C
:1010B0008B431365FFF734FC0600184B1B6D9B0731
:1010C00006D5FFF72DFC801B0228F6D9032001E18D
:1010D00023685B0700D48EE0104B9B6BDB001BD4B6
:1010E0000E4A916B80235B050B4393630126144BDF
:1010F0001B68DB0528D5A36880225200934237D0B5
:10110000002B4DD1054B1A6D0C490A401A651A6D1A
:101110000C490A401A6531E00026E8E70010024059
:10112000FFFFFEFFFFFFFBFFFFE0FFFFB82000080F
:101130000000002008000020FF1FFFFFFFFEFFFF50
:1011400000700040FFFBFFFF6B4A116880235B00CB
:101150000B431360FFF7E4FB0700674B1B68DB05DD
:10116000C9D4FFF7DDFBC01B6428F6D90320B1E02A
:10117000624A116D80235B000B431365A368002B4B
:1011800028D0FFF7CDFB07005C4B1B6D9B0530D4CF
:10119000FFF7C6FBC01B5A4B9842F5D9032099E0D4
:1011A000A022D200934209D0544B1A6D55490A40EF
:1011B0001A651A6D54490A401A65DFE74F4B196DDD
:1011C000013AFF3A0A431A65196D802252000A4318
:1011D0001A65D3E7FFF7A4FB0700484B1B6D9B057F
:1011E00007D5FFF79DFBC01B454B9842F5D903205F
:1011F00070E0012E1AD0636A002B00D172E00C2D32
:101200004FD0022B18D03D4A136840490B40136061
:10121000FFF786FB0400394B1B689B013FD5FFF7A6
:101220007FFB001B0228F6D9032053E0334A936B5F
:1012300037490B409363DEE7304A136833490B406C
:101240001360FFF76DFB05002C4B1B689B0106D557
:10125000FFF766FB401B0228F6D903203AE0274936
:10126000CB682C4A1340A26AE06A0243206B024317
:101270001343CB600A6880235B0413430B60FFF7C2
:101280004FFB04001D4B1B689B0106D4FFF748FB76
:10129000001B0228F6D903201CE000201AE00020E1
:1012A00018E0012B20D0154BDA6880235B02134035
:1012B000A16A8B421AD1F0239B031340E16A8B424F
:1012C00016D1C0231B041A40236B9A4212D100206E
:1012D00000E0012003B0F0BD0120FBE70120F9E7A9
:1012E0000120F7E70020F5E70120F3E70120F1E70F
:1012F0000120EFE70120EDE7007000400010024000
:1013000088130000FFFEFFFFFFFBFFFFFFFFFFFE54
:10131000FFFFFFEFFFFF02FF70B505000C00002884
:1013200000D1D1E06A4B1A68012313408B4219D3D4
:101330002B689B0706D5674AD368F0218B43A968C1
:101340000B43D3602B68DB077BD56B68022B20D067
:10135000032B40D0012B44D05E4A126892051DD465
:10136000012099E05A4A136801218B4323431360FB
:10137000FFF7D6FA0600564B1A6801231340A34222
:10138000D6D0FFF7CDFA801B534A9042F3D9032001
:1013900082E0504A1268920300D497E04D49CA682F
:1013A000032082431343CB60FFF7BAFA06006B6851
:1013B000022B1CD0032B28D0012B34D0454BDB68EB
:1013C0000C221A423DD0FFF7ABFA801B424B9842E9
:1013D000F4D9032060E03F4A12689201DED4012074
:1013E0005AE03C4A12685207D8D4012054E0394BE5
:1013F000DA680C231340082B23D0FFF791FA801BE7
:10140000354A9042F3D9032046E0324BDA680C2388
:1014100013400C2B15D0FFF783FA801B2E4B9842FC
:10142000F3D9032038E02B4BDA680C231340042B4C
:1014300007D0FFF775FA801B274B9842F3D903209A
:101440002AE0234B1A6801231340A34225D82B68B6
:101450005B0706D51F4AD36820490B40E9680B4358
:10146000D3602B681B0707D51A49CB681C4A134069
:101470002A69D2001343CB60FFF770FC154BDA6882
:1014800012090F231340174AD35CD840164B18603B
:10149000164B1868FFF7FCF970BD0D4A136801215F
:1014A0008B4323431360FFF73BFA0600084B1A688F
:1014B00001231340A342CAD0FFF732FA801B064B28
:1014C0009842F3D90320E7E70120E5E70120E3E7AD
:1014D000002002400010024088130000FFF8FFFFC8
:1014E000FFC7FFFFB8200008000000200800002010
:1014F000014B18687047C0460000002010B5FFF788
:10150000F7FF044BDA68120A07231340024AD35C40
:10151000D84010BD00100240B020000810B5FFF701
:10152000E7FF044BDA68D20A07231340024AD35C70
:10153000D84010BD00100240B020000870B5040073
:1015400003689B064ED5614B9B6BDB007ED45F4AE4
:10155000916B80235B050B43936301265C4B1B68F7
:10156000DB0575D5594B1B6862685340C021890360
:101570000B4205D0C0239B021100194099427CD038
:10158000524B196DC0239B0208001840194215D018
:101590001A40824212D023689B060FD54B4B1A6D1E
:1015A0004C4911401D6D8020000328431865186DBB
:1015B000494D284018651965D20565D423689B06F6
:1015C0000ED56368C02292021900114091426AD080
:1015D0003E490B6D6268C0208002024013430B65D8
:1015E000012E6AD02368DB0706D5384AD36C032165
:1015F0008B43A1680B43D36423689B0706D5334A0A
:10160000D36C0C218B43E1680B43D36423685B07E5
:1016100006D52E4AD36C31490B4021690B43D36464
:1016200023681B0706D5294AD36C2D490B406169F5
:101630000B43D36423681B0645D5244AD36C294940
:101640000B40A1690B43D36400203DE0002685E7F1
:101650001F4A116880235B000B431360FFF760F99A
:1016600005001B4B1B68DB0500D57BE7FFF758F92E
:10167000401B6428F5D9032026E0144B1B689B030C
:1016800000D47DE701201FE0FFF74AF905000F4B6A
:101690001B6D9B0592D4FFF743F9401B124B9842F8
:1016A000F5D9032010E009490A6810480240C0201B
:1016B0008003034013430B608AE7044A936B0C4991
:1016C0000B4093638EE7002070BDC04600100240BF
:1016D00000700040FFFFFCFFFFFFF7FFFFF3FFFF7D
:1016E000FFCFFFFFFFFFF3FF88130000FFFFCFFFD7
:1016F000FFFFFFEF10B5EFF3108C012282F310888B
:1017000001680B68124C23400B608CF31088EFF3D8
:10171000108C82F3108801688B6893438B608CF384
:101720001088036E012B06D080232022C250002394
:101730000366836610BDEFF3108183F3108802689F
:1017400013683234FF34A343136081F31088EBE74E
:10175000DFFEFFFFD0B504008368026913434269CE
:101760001343C269134301680A6894480240134353
:101770000B602268536892490B40E1680B43536049
:10178000A16922688F4B9A4201D0236A194393685A
:101790008D4803400B43936022688C4B9A4216D0CD
:1017A0008B4B9A4224D0874B9A4232D010238549E2
:1017B0008A425CD0E06980221202904200D192E01D
:1017C000082B00D9F3E09B00824AD3589F46824BF6
:1017D000D96C03230B40022B33D005D8002B32D019
:1017E000012B32D10333E2E7032B30D10533DEE79F
:1017F000794BD96C0C230B40082B2AD005D8002B31
:1018000029D0042BD3D01023D1E70C2B25D1043BB6
:10181000CDE7714BDB6CC02109010B408021090130
:101820008B421CD007D8002B1BD08021C9008B42D3
:1018300019D10423BBE7C02109018B4215D108232C
:10184000B5E70223B3E70123B1E71023AFE7102385
:10185000ADE70223ABE70023A9E71023A7E70223A4
:10186000A5E70023A3E71023A1E710239FE7042B9C
:1018700034D00BD8002B10D0022B05D1564B1B684F
:10188000DB062ED455480DE001206DE0082B02D177
:101890008020000206E0012066E0FFF72FFE00280E
:1018A00000D176E0626853009B18834200D972E051
:1018B0001303834200D270E0070E06025008002195
:1018C000801979410023FEF787FC454BC218454B30
:1018D0009A4264D82368D860002045E0FFF73EFABA
:1018E000DDE74148DEE7082B5BD89B003F4AD35831
:1018F0009F46FFF703FE002855D0400061684B0863
:10190000C018FEF7DDFB0200103A394B9A424CD862
:1019100082B20F239A434008083B034013432268D6
:10192000D360002020E0FFF7F9FDE4E72A4B1B68B5
:10193000DB0604D42948E0E7FFF710FADBE72A4882
:10194000DBE7FFF7DBFD002833D061684B08181890
:10195000FEF7B6FB0200103A254B9A422BD82368BB
:101960000004000CD86000200023A366E366D0BD0D
:10197000FFF7D4FDE7E7184B1B68DB0607D41748D1
:10198000E3E7FFF7EBF9DEE780200002DDE716482A
:10199000DBE70020E8E70120E6E70120E4E701209B
:1019A000E2E70120E0E70020DEE70120DCE701209C
:1019B000DAE70020D8E70120D6E7C046F369FFEF59
:1019C000FFCFFFFF00480040FFF4FFFF0038014059
:1019D00000440040C8200008001002400024F40029
:1019E00000FDFFFFFFFC0F0000093D00EC20000898
:1019F000EFFF0000436ADB0706D5026853682C49F5
:101A00000B40816A0B435360436A9B0706D502680B
:101A1000536828490B40C16A0B435360436A5B0714
:101A200006D50268536824490B40016B0B43536091
:101A3000436A1B0706D50268536820490B40416B77
:101A40000B435360436ADB0606D5026893681C4962
:101A50000B40816B0B439360436A9B0606D502687B
:101A6000936818490B40C16B0B439360436A5B0654
:101A70000BD50268536814490B40016C0B4353604B
:101A8000026C80235B039A420AD0436A1B0606D588
:101A9000026853680D490B40816C0B4353607047DB
:101AA000026853680A490B40416C0B435360ECE7F2
:101AB000FFFFFDFFFFFFFEFFFFFFFBFFFF7FFFFFBD
:101AC000FFEFFFFFFFDFFFFFFFFFEFFFFFFFF7FF6E
:101AD000FFFF9FFFF8B5CE46474680B506000D00D4
:101AE00017009946089B98463368DC692C40641BB4
:101AF00063425C41BC422FD143460133F4D0FEF730
:101B00000FFF4B46C01A40452BD84346002B2AD026
:101B100033681A685207E7D5DA69120710D4DA6910
:101B20001205E1D5802212011A623000FFF7E2FDB2
:101B300084232022F2500C3B0022F25403200CE0BC
:101B400008241C623000FFF7D5FD8423F4500C3BC1
:101B50000022F254012000E00020C0BCB946B0468B
:101B6000F8BD0320F9E70320F7E7000030B583B0A4
:101B7000040084230022C250FEF7D2FE0500236831
:101B80001B681B070FD423681B685B0729D420231D
:101B9000E3678022A350002323666366083AA354B8
:101BA000002003B030BD8021224B009303000022AF
:101BB00089032000FFF78EFF0028E4D0EFF31081A7
:101BC000012383F310882268136880208343136005
:101BD00081F310882023E36758330022E2547D38D4
:101BE000DFE78021134B00932B000022C903200064
:101BF000FFF770FF0028CAD0EFF31080012282F3B4
:101C0000108821680B680C4D2B400B6080F3108806
:101C1000EFF3108082F3108821688B6893438B6008
:101C200080F3108880231F32E250083B0022E254E8
:101C30000320B6E7FFFFFF01DFFEFFFF10B5041E24
:101C40002ED0C36F002B21D02423E36722681368B2
:101C500001218B4313602000FFF77CFD012814D085
:101C6000636A002B18D1226853680E490B405360F9
:101C7000226893682A218B4393602268136829396C
:101C80000B4313602000FFF771FF10BD7833002273
:101C9000C254FEF7B1FCD7E72000FFF7ABFEE2E746
:101CA0000120F2E7FFB7FFFFF0B5CE469946030CDF
:101CB0009C46130447461B0C1D000E00614604049D
:101CC000240C80B50700100C4B436543414360432F
:101CD0002C0CC01824188C46A34203D980235B0225
:101CE0009846C444494679435643230C2D042D0C91
:101CF0008919634424046019C918C0BCB946B046A8
:101D0000F0BDC046F0B557464E464546DE46E0B506
:101D100004000D009246994683B08B4230D82DD0F6
:101D200049465046FEF778FA290006002000FEF7E3
:101D300073FA331A9846203B34D49B4653465A468E
:101D4000934042461F00534693401E00AF423BD88B
:101D5000AF4200D179E05B46A41BBD41002B00DA05
:101D600076E0002200230092019301235A4693401B
:101D70000193012342469340009329E08242CFD948
:101D800000220023009201930C9B002B01D01C60C9
:101D90005D600098019903B0F0BCBB46B246A9460D
:101DA000A046F0BD42469B4620239B1A5246DA408D
:101DB000414613004A468A40170042461F43534695
:101DC00093401E00AF42C3D900220023009201932A
:101DD0004346002BD8D0FB0772081A4346467B08BF
:101DE0000EE0AB4201D1A2420CD8A41A9D410120C1
:101DF00024196D410021013E24184D41002E06D0CA
:101E0000AB42EED9013E24196D41002EF8D1009865
:101E100001995B4600196941002B24DB2B005A46CF
:101E20004446D3402A00E2401C005B461500002BCC
:101E30002ADB26009E40330026004746BE40320083
:101E4000801A9941009001919EE7A342BCD882E795
:101E50004246202300219B1A002200910192012278
:101E6000DA40019285E7424620239B1A2A00464623
:101E70009A402300F340444613432A00E2401C00EA
:101E80005B461500002BD4DA42462F0020232600A3
:101E900097409B1ADE403B003343CDE7F0B5050089
:101EA000830749D0541E002A45D003000326CAB236
:101EB00002E00135013C3ED301332A703342F8D1B0
:101EC000032C30D9FF220A401502AD182A04AD18A0
:101ED0000F2C34D92700103F3F093E01B4461E00A5
:101EE0001A0010366644156055609560D560103252
:101EF0009642F8D101373F01DB190F270C2227400A
:101F000022403C00002A0ED03E1FB608B400A44672
:101F10001A001C1D644420C2A242FCD103240136D5
:101F2000B6009B193C40002C05D0C9B21C19197091
:101F300001339C42FBD1F0BD03001400C0E7270031
:101F4000E2E7C04670B50D4B0D4D5E1BB610AB42BF
:101F500005D0002408CD01349847A642FAD800F0F5
:101F600095F8084B084D5E1BB610AB4205D0002417
:101F700008CD01349847A642FAD870BD1821000850
:101F80001821000820210008182100087047C046C9
:101F90007047C046034B10B5002B02D0024800F03A
:101FA00005F810BD00000000BD1F000810B50100BD
:101FB00000230022002000F015F810BD70B5074C7A
:101FC000074D641BA41005D0013CA300EB589847B3
:101FD000002CF9D100F060F870BDC0462421000843
:101FE00020210008F0B5D6464F4646469846244B79
:101FF000C0B5060018689A460F009146FFF7C6FF65
:10200000204B1D68002D32D053466C6818681F2C79
:1020100030DC002E0CD1631C0234A4006B606751CD
:10202000FFF7B6FF0020E0BCBA46B146A846F0BDB7
:1020300049468822A300EB189950C42149008C46D8
:10204000AC446146873AA240096891461143624612
:1020500011608421424649005A50022EDBD12900EA
:102060004A468D31FF310B6813430B60D3E7064DB1
:102070001D60C9E7FFF78CFF01204042D3E7C0464F
:102080000C000020BC140020C0140020F8B5C0468D
:10209000F8BC08BC9E467047F8B5C046F8BC08BC02
:0420A0009E467047A1
:1020A400030406080C101820300000000000000093
:1020B4000102030400000000000000000102030408
:1020C4000607080942190008701900087619000863
:1020D400AE19000882190008AE190008AE190008EC
:1020E400AE19000888190008F2180008261900081B
:1020F4002C190008A219000838190008A2190008B0
:0C210400A2190008A2190008FA1800082F
:08211000F4FBFF7F0100000059
:08211800951F0008E102000818
:04212000B5020008FC
:10212400000020000100000004000000B81400209A
:040000050800065990
:00000001FF
