:020000040800F2
:1000000000200020350800085107000853070008A9
:1000100000000000000000000000000000000000E0
:10002000000000000000000000000000550700086C
:1000300000000000000000005707000859070008F2
:10004000850800088508000885080008850800085C
:100050008508000885080008610700087107000886
:1000600000000000850800088508000885080008D1
:1000700085080008850800080000000085080008C1
:1000800000000000850800080000000000000000DB
:1000900085080008000000008508000885080008A1
:1000A00085080008850800088508000885080008FC
:1000B0008508000885080008000000000000000016
:1000C000002243088B4274D303098B425FD3030A97
:1000D0008B4244D3030B8B4228D3030C8B420DD3AA
:1000E000FF22090212BA030C8B4202D31212090238
:1000F00065D0030B8B4219D300E0090AC30B8B4276
:1001000001D3CB03C01A5241830B8B4201D38B0323
:10011000C01A5241430B8B4201D34B03C01A5241C8
:10012000030B8B4201D30B03C01A5241C30A8B420B
:1001300001D3CB02C01A5241830A8B4201D38B02F6
:10014000C01A5241430A8B4201D34B02C01A52419A
:10015000030A8B4201D30B02C01A5241CDD2C3090C
:100160008B4201D3CB01C01A524183098B4201D388
:100170008B01C01A524143098B4201D34B01C01A73
:10018000524103098B4201D30B01C01A5241C308EB
:100190008B4201D3CB00C01A524183088B4201D35A
:1001A0008B00C01A524143088B4201D34B00C01A46
:1001B0005241411A00D20146524110467047FFE7B2
:1001C00001B5002000F006F802BDC0460029F7D0B6
:1001D00076E770477047C046002B11D1002A0FD137
:1001E000002900D1002802D00021C943080007B42B
:1001F000024802A14018029003BDC046D9FFFFFF8C
:1002000003B4684601B5029803F054F8019B9E467A
:1002100002B00CBC7047C04610B5002903D100F0F5
:1002200007F8203002E0080000F002F810BDC046D8
:100230001C2101231B04984201D3000C10391B0A16
:10024000984201D3000A08391B09984201D30009DA
:10025000043902A2105C40187047C0460403020231
:100260000101010100000000000000000448054BEE
:1002700010B5834203D0044B002B00D0984710BD2B
:10028000D0130020D01300200000000006480749CA
:10029000091A8B10C90FC91810B5491003D0044BA7
:1002A000002B00D0984710BDD0130020D0130020A1
:1002B0000000000010B5074C2378002B09D1FFF790
:1002C000D5FF054B002B02D0044800E000BF0123FE
:1002D000237010BDD0130020000000003C36000841
:1002E000054B10B5002B03D00449054800E000BFC2
:1002F000FFF7CCFF10BDC04600000000D413002063
:100300003C360008F0B5CE46474680B587B0184C5D
:10031000E26A02231A43E262E26A13400093009BFE
:10032000402301932E3B9946029300239846039362
:1003300003270497012605960E4D01A9280001F018
:10034000CFF8802301934B460293434603930497CF
:10035000059601A9280001F0C3F8A26B80239B0336
:100360001343A36307B0C0BCB946B046F0BDC04656
:10037000001002400004005010B5074A936B074973
:100380000B409363064C4021200001F06FF980215F
:10039000200001F06BF910BD00100240FFFFDFFFED
:1003A0000004005010B50C4B1B68002B12D0013B11
:1003B000094A1360002B01D000200CE0074C2000FC
:1003C000FFF7DAFF200001F016FC002803D0082018
:1003D000404200E0002010BDEC130020F01300208C
:1003E00010B50A008023064C5B010100200001F0DB
:1003F000BFFD002800D110BD03204042FBE7C046EE
:10040000F013002030B585B00D4C80256D010295AC
:100410000193009202230A000100200001F004FC75
:10042000002802D1002005B030BD054801F06AFE69
:10043000042802D004204042F5E76A38F3E7C046BA
:10044000F013002030B585B00D4C80256D0102956C
:100450000193009202230A000100200001F0B4FC85
:10046000002802D1002005B030BD054801F04AFE49
:10047000042802D066204042F5E704204042F2E71B
:10048000F013002070B50400104B0360104B436064
:10049000002383600122C260036143618361C36101
:1004A000036201F041FB051E00D001250021200060
:1004B00001F02AFE002800D001250021200001F0D3
:1004C0004FFE002800D00125280070BD00540040D8
:1004D000583D500010B5144B144A1A60144A136862
:1004E000591C1160002B01D0002010BD0E4801F0F6
:1004F00005FE002801D00020F7E70B4C2000FFF795
:1005000001FF2000FFF7BEFF00280AD106480021A6
:1005100001F0FAFD002801D10020E6E70820404262
:10052000E3E708204042E0E7F013002000540040D9
:10053000EC130020F0B589B01422002103A802F0CA
:1005400085FF354BDA6A01263243DA62DA6A3240D5
:100550000192019ADA6A02242243DA62DB6A2340BA
:100560000293029BA025ED050022E421280001F062
:1005700006F92A4F00220321380001F000F9042374
:100580000393049605940024069403A9280000F020
:10059000A7FF0823039388235B030493059403A90F
:1005A000280000F09DFFE023039304960594069431
:1005B00003A9280000F094FF0323039304960594F5
:1005C000069403A9380000F08BFF80235B0003939F
:1005D0000494059403A9280000F082FF80231B02E5
:1005E000039384239B030493059403A9280000F03C
:1005F00077FF00220121062000F03CFF062000F0DA
:100600003DFF00220021072000F034FF072000F00A
:1006100035FF09B0F0BDC046001002400004005094
:1006200072B6FEE700B59BB0342200210DA802F09F
:100630000DFF1422002108A802F008FF1C2200214F
:1006400001A802F003FF1A490A681A4B1A408023D6
:100650001B0113430B6002230D93013B10930F33D7
:100660001193002316930DA801F0FCFD002819D169
:100670000F2308930E3B099300230A930B930C93CB
:10068000002108A802F074F800280DD10923019375
:1006900000230393069301A802F07CF9002805D1FA
:1006A0001BB000BDFFF7BCFFFFF7BAFFFFF7B8FFB5
:1006B00000700040FFE7FFFF70B500F057FEFFF746
:1006C000B1FFFFF737FF00F067F802F05DFD00F0C3
:1006D0003FFDA024E40500220421200001F04FF892
:1006E000FA25AD00280000F067FE01220421200059
:1006F00001F045F8280000F05FFE002204212000F0
:1007000001F03DF802F09EFD084B1B78012BF9D15A
:10071000074C0021200000F027FD0121200000F0FF
:1007200023FD024B00221A70ECE7C046441400205F
:1007300000000020054B5A6B01210A435A63996B54
:10074000802252050A439A637047C0460010024057
:10075000FEE7FEE77047704710B500F01BFE10BDC6
:1007600010B5024800F0A8FE10BDC046BC13002022
:1007700010B58020000201F009F810BD80231B0293
:10078000984200D07047024B01221A70FAE7C04627
:10079000441400207047000010B50C480C4B036057
:1007A000E1235B02436000238360C36003610C228A
:1007B00042618361C3610362436202F06BFC002803
:1007C00000D110BDFFF72CFFFBE7C0464814002006
:1007D0000038014010B586B004001422002101A8A1
:1007E00002F034FE2268114B9A4201D006B010BDCF
:1007F0000F4B596B8022D2010A435A63D96A0122F6
:100800001143D962DB6A1A400092009BC023DB00CF
:100810000193022302930133049301330593A02033
:1008200001A9C00500F05CFEE0E7C04600380140C9
:10083000001002400D488546FFF7ACFF0C480D49FB
:100840000D4A002302E0D458C4500433C4188C422B
:10085000F9D30A4A0A4C002301E013600432A24291
:10086000FBD302F047FEFFF727FFFEE70020002042
:1008700000000020D0130020F4360008D013002020
:10088000B4160020FEE710B58368A620984710BD77
:1008900070B50C00110005692200A620A84770BDA4
:1008A000F8B5DE4657464E464546E0B506008B464F
:1008B0001700994615E04D46F4682B005A4639005A
:1008C000A620A0478046002811D0AB44EF19BFB244
:1008D0004B465D1BABB29946002B20D04346002B04
:1008E0001DD180235B009945E5D91D00E4E77369BC
:1008F00098478246B3680121A6209847040073698F
:1009000098475346C01AA0235B00984201D2002C9E
:10091000F0D1002CD9D003235B429846D5E740465E
:10092000F0BCBB46B246A946A046F8BD10B58C0443
:1009300003D50469A620A04710BD0469AE20A047D6
:10094000FAE7F8B5050088041AD4EC68AE20A04791
:10095000061E19D16B6998470700AB680121AE20CC
:10096000984704006B699847C01BA0225200904230
:1009700001D2002CF1D1002C06D00326764203E0F0
:10098000EC68A620A04706003000F8BD10B518306E
:1009900000F05BF910BD30B583B00400436A002B52
:1009A00004D001236362002003B030BD6B46DD1D1F
:1009B0002900FFF7EBFF2B78242BF2D0262BF0D069
:1009C00001204042F0E710B582B00C0018306B46B1
:1009D000D91D00F0C1F9002803D16B4607331B78FD
:1009E000238002B010BD00B583B06B46D9800633BA
:1009F0001830190000F0BCF903B000BD10B5002894
:100A000016D00B6803604A684260CA68C2600A690F
:100A100002618A6882604A6942610A4AC2610A4A7E
:100A200082610062002B06D09847002806D110BDD5
:100A300001204042FBE701204042F8E7012040420C
:100A4000F5E7C0462D09000843090008F0B5DE4669
:100A500057464E464546E0B583B005008B46160026
:100A60001F0016E000239946EC68C8464B465A46DC
:100A70003100AE20A0470190002811D0CB4446445D
:100A8000B6B24346FF1ABFB2002F21D0019B002B04
:100A90001ED180235B009F42E4D8FBB29946E3E776
:100AA0006B6998478246AB680121A62098470400ED
:100AB0006B6998475346C01AA0235B00984201D245
:100AC000002CF0D1002CD9D003235B420193D5E751
:100AD000019803B0F0BCBB46B246A946A046F0BDA3
:100AE00030B589B004000091019203AD11220021BC
:100AF000280002F0ABFC09232B72002314E00099BC
:100B00000322D21AD200D14003A8C1540199D14086
:100B10000A00191D42541A000932C55C855404327A
:100B2000415C81540133DBB2032BE8D990221123BD
:100B3000120103A92000FFF789FF09B030BD10B5ED
:100B400082B00C0018306B46D91D00F08AF80028DE
:100B500006D16B4607331B78002B03D0012323708B
:100B600002B010BD00232370FAE700B583B06B46D6
:100B7000D97107331830190000F084F803B000BDB4
:100B800070B50C00802149008A4208D805690549E2
:100B90008C46624491B22200A620A84770BD012075
:100BA0004042FBE70820000010B582B00C0018306E
:100BB0006B46D91D00F0E8F8002806D16B460733D4
:100BC0001B78002B03D00123237002B010BD00233B
:100BD0002370FAE710B582B00C0018306B46D91DAF
:100BE00000F0ACF8002814D16B4607331B780122C3
:100BF0001100194021705910114061709910114075
:100C0000A17019111140E17059110A4022719B091C
:100C1000637102B010BD00B583B06B46D91D0123CE
:100C20000B70183000F062F803B000BD10B518303A
:100C300000F04EF810BD10B544688068A04710BDA4
:100C400010B504688068A04710BD10B50A000123E4
:100C50001721FFF7F0FF002800D110BD012040420E
:100C6000FBE710B50C0001230A000D21FFF7E3FF9D
:100C7000002804D1227801231340237010BD0120E5
:100C80004042FBE730B583B004000D0001236A4603
:100C900007320D21FFF7CFFF002813D129786B46CB
:100CA000DA7901230B4001218A4313436A46D37149
:100CB000012307320C312000FFF7C2FF002804D1C6
:100CC00003B030BD01204042FAE701204042F7E77F
:100CD00010B50A0001230449FFF7ADFF002800D139
:100CE00010BD01204042FBE70720000030B583B073
:100CF00004000D0001236A4607320F49FFF79BFFEE
:100D0000002813D129786B46DA7901230B400121A1
:100D10008A4313436A46D3710123073206492000F0
:100D2000FFF78EFF002804D103B030BD0120404200
:100D3000FAE701204042F7E70620000010B50A005C
:100D400001230449FFF777FF002800D110BD0120DF
:100D50004042FBE70620000010B50A0001230021F5
:100D6000FFF769FF002800D110BD01204042FBE7DA
:100D700010B50A0001230021FFF762FF002800D10F
:100D800010BD01204042FBE710B50C0001230A0012
:100D90000649FFF750FF002804D1227801231340B1
:100DA000237010BD01204042FBE7C0460420000034
:100DB00005E00133DBB2002BFBD00138C0B20028C4
:100DC00001D00023F7E7704710B500F0F5FA10BD29
:100DD00010B50024C8235B009C420CD28021A020C7
:100DE0004900C00500F0C4FC002806D00A20FFF727
:100DF000EBFF0134EEE7002000E0012010BD70B5EC
:100E000004000120FFF7D4FF002515E0A0200022F8
:100E10002021C00500F0B3FC6400E4B20120FFF71C
:100E2000C7FFA02001224021C00500F0A8FC01203E
:100E3000FFF7BEFF0135EDB2072D12D8A02000222A
:100E40004021C00500F09BFC0120FFF7B1FF63B219
:100E5000002BDBDAA02001222021C00500F08FFC4E
:100E6000DAE770BD70B505000E00A02000228021D9
:100E7000C00500F084FC104C00220121200000F08D
:100E80007EFC2878FFF7BBFF0135012201212000FD
:100E900000F075FC002405E02878FFF7B0FF01356D
:100EA0000134E4B2731E9C42F6DBA02001228021B3
:100EB000C00500F064FC70BD00040050F0B585B0C2
:100EC0000AAC27780BAC267803AD44242C706870EC
:100ED000A97001AC452121706270A370E770267182
:100EE00042392800FFF7BEFF05212000FFF7BAFFB7
:100EF00005B0F0BD10B582B04E236C462371607111
:100F00004F2323706170A270022101A8FFF7AAFF8E
:100F100003216846FFF7A6FF02B010BD00B583B0FD
:100F200011480421FFF79EFF10480421FFF79AFFA4
:100F30000F480221FFF796FF0E480221FFF792FFAC
:100F40000D480221FFF78EFF002301930093C72273
:100F500018210020FFF7B2FF0022C7210020FFF771
:100F6000C9FF03B000BDC046B8130020B413002071
:100F7000B0130020AC130020A813002010B50A4CB9
:100F800000220221200000F0FAFB6420FFF71CFF82
:100F900001220221200000F0F2FB6420FFF714FF81
:100FA000FFF7BCFF10BDC0460004005010B5FFF7AE
:100FB00059FF10BDF8B505000C00FFF709FFA0268A
:100FC000F60500228021300000F0D9FB0B4F0022F3
:100FD0000121380000F0D3FB2800FFF710FF0122A9
:100FE0000121380000F0CBFB2000FFF708FF0122B1
:100FF0008021300000F0C3FBF8BDC0460004005063
:1010000070B50400A025ED0500228021280000F025
:10101000B6FB00220121064800F0B1FB2000FFF7DB
:10102000EEFE01228021280000F0A9FB70BDC04621
:101030000004005010B5C0212220FFF7BBFF202084
:10104000FFF7DEFF10BD10B5C7212220FFF7B2FF6A
:101050002020FFF7D5FFFF20FFF7D2FF10BD0000D3
:10106000F0B5C64600B588461600430704D00723EE
:10107000984305000835E8B2C508FFF7A9FEA0208F
:1010800000228021C00500F07AFB124C00220121D1
:10109000200000F074FB2420FFF7B1FE01220121A3
:1010A000200000F06CFB002706E03000FFF7A7FEF1
:1010B0000134A542F9DC0137474501D20024F8E7A5
:1010C000A02001228021C00500F059FB80BCB84659
:1010D000F0BDC04600040050F0B5C64600B58846D5
:1010E0001500430704D00723984306000836F0B2E2
:1010F000C608FFF76DFEA02000228021C00500F089
:101100003EFB124C00220121200000F038FB24207D
:10111000FFF775FE01220121200000F030FB0027BF
:1011200007E02878FFF76BFE01350134A642F8DCB2
:101130000137474501D20024F8E7A0200122802191
:10114000C00500F01CFB80BCB846F0BD0004005098
:1011500010B5FFF713FF03481F21FFF727FFFFF725
:1011600069FF10BD7836000870B505000C0000223C
:10117000C7210020FFF7BEFE002C07D1FF22C821A7
:10118000C820FFF76DFFFFF75EFF70BD2A00C82182
:10119000C820FFF7A1FFF6E710B586B0082301933A
:1011A00088235B0302930223049300230393A0206C
:1011B00001A9C00500F094F90A4C0B49200000F089
:1011C00074F90A4A0021200000F068F90022002189
:1011D000062000F04FF9062000F050F9002006B07C
:1011E00010BDC046BC130020030000064D320008AD
:1011F00000B587B0164B0093164B0193164B029324
:10120000164B0493164B0393164B059316486946E9
:10121000FFF7F4FB002817D1144B154A1A60136826
:10122000002B0BD010489847002801D107B000BD13
:101230000E4B00221A6001204042F7E70B4B0022C0
:101240001A6001204042F1E701204042EEE7C0462B
:10125000D5040008A5030008E103000845040008C0
:1012600005040008AD130008D0140020F814002075
:101270008C13002010B5054B1B681B69002B02D096
:101280000348984710BD01204042FBE7F8140020B6
:10129000D014002000B583B0009101920248FFF7FE
:1012A0001FFC03B000BDC046D014002010B502489A
:1012B000FFF745FC10BDC046D014002010B5024811
:1012C000FFF753FC10BDC046D014002010B50248F3
:1012D000FFF756FC10BDC046D014002010B50248E0
:1012E000FFF762FC10BDC046D014002010B50248C4
:1012F000FFF770FC10BDC046D014002010B50248A6
:10130000FFF789FC10BDC046D014002010B502487C
:10131000FFF78CFC10BDC046D014002010B50400AF
:101320000F4B1978FA208000FEF7CAFE01000D4B22
:101330001868FEF7C5FE00F0ADF800280DD1032CAB
:1013400001D901200AE0013000222100404200F0D2
:1013500091F8054B1C60002000E0012010BDC04644
:10136000C413002088130020C813002010B5084AB9
:10137000136840210B4313600320FFF7CFFF041EC7
:1013800002D00124200010BDFFF7D4F9FAE7C046CF
:1013900000200240034A1168034B1B785B1813605E
:1013A0007047C046FC140020C4130020014B18688D
:1013B0007047C046FC14002070B50400FFF7F6FF2C
:1013C0000500631C02D0044B1B78E418FFF7EEFF06
:1013D000401BA042FAD370BDC413002070B5002892
:1013E00011DB8308134DC0339B005C59032210406E
:1013F000C000FC3216008640B44389010A40824096
:1014000022435A5170BD0F230340083B9B0806330B
:101410009B00094A944663445C6803221040C00064
:10142000FC3215008540AC4389010A4082402243CA
:101430005A60E7E700E100E000ED00E001388023BA
:101440005B0498420FD2094A50600948036A1B02A4
:101450001B0AC02109060B43036200239360073374
:101460001360002070470120FCE7C04610E000E058
:1014700000ED00E010B5FFF7B1FF10BD002805DB5F
:101480001F22024001239340014A13607047C04667
:1014900000E100E010B5FFF7D1FF10BD002902D137
:1014A0004260080070470120FCE7002802D001607C
:1014B000002070470120FCE710B503681F221A4086
:1014C00001239340054A5269134205D0034A5361F0
:1014D0004368002B00D0984710BDC046000401406F
:1014E000F0B5002356E086685F000324BC40A643A5
:1014F000CC68BC4034438460446894434E683609E9
:10150000012232409A402243426053E0DE0808360E
:10151000B600375805321A4092000F249440A74372
:101520000C69944022003A43325056E0052600E010
:101530000026A64034003C4302329200444E9451AF
:10154000444A9768EA433E00AE434C68E40201D542
:101550003E002E433F4CA660E7683E0016404C68B4
:10156000A40201D53E002E433A4CE66067683E0077
:1015700016404C68A40301D53E002E43354C6660EE
:10158000266832404C68E40301D52A003243314CCE
:10159000226001330C682200DA4057D001229A40C1
:1015A000250015401442F4D04E6803243440013C19
:1015B000012C98D94C6803222240032A08D0C46821
:1015C0005E000322B24094438A68B2402243C26064
:1015D0004C6803222240022A98D004685E0003224D
:1015E0001700B740BC434F683A40B2402243026004
:1015F0004C68C02292021442CBD0174C626B012679
:10160000324362639A08941CA400114EA759032424
:101610001C40A4000F26A640B743A026F605B04202
:1016200086D00E4EB0420BD00D4EB0420AD00D4EB9
:10163000B04209D00C4EB04200D177E7062678E7D9
:10164000012676E7022674E7032672E7F0BDC0465E
:10165000000001400004014000100240000400505E
:1016600000080050000C0050001C0050F0B5CE46A1
:10167000474680B58946002323E00521884601E0DE
:10168000002188464146A140A9424CD004685E0032
:101690000325B5402C430460DC080834A400275817
:1016A00007261E40B6000F21B1408F432750C46863
:1016B000AC43C4604468944344608268AA43826037
:1016C00001334A46DA4043D001229A404C46144046
:1016D000A44649461142F3D09F08BC1CA4001E4DED
:1016E000655903261E40B4000F26A6403540A021B0
:1016F000C9058842C4D0194988420BD0184988428C
:101700000BD0184988420BD017498842B5D0062122
:101710008846B7E701218846B4E702218846B1E749
:1017200003218846AEE7114C256861468D4325604C
:1017300065688D436560E5688D43E560A5688D4308
:10174000A56005490237BC006558B54365509DE763
:10175000C0BCB946B046F0BD0000014000040050D6
:1017600000080050000C0050001C00500004014014
:1017700003690B4201D0012070470020FCE7002ADA
:1017800001D0816170478162FCE7000010B5054B14
:101790005B69184200D110BD024B5861FEF7EEFFA5
:1017A000F9E7C04600040140026893699B0701D530
:1017B0000023936203689A69D20703D49A690121CE
:1017C0000A439A617047000010B58905890D12041B
:1017D00011431943029B1943490049080468626890
:1017E0005B0D8020C0000340034803439A4313006D
:1017F0000B43636010BDC046FF63FF03F0B5C646F0
:1018000000B504000D00170001688B691022160056
:101810001E401A4200D175E01023CB610023984688
:101820000026206883699B0631D4002E2FD16B1CC3
:10183000F7D0FFF7BBFDC01BA84201D8002DF0D1A7
:1018400021684B688022D20113404222A25CD2B2AE
:101850008869000403D5002B01D1202A0ED123680A
:101860009B699B06DDD4FFF7A1FDC01B1928F6D9A3
:10187000202342461A4390460126D2E74A68802335
:10188000DB0113434B60FFF791FD0700E7E7002EF4
:1018900001D12023C3610426434633431E000125A2
:1018A00022689369D90504D501210E43FF31D16126
:1018B00001255A0506D50822164322688021C90051
:1018C000D16101259B051FD502231E432368802279
:1018D0009200DA6101252000FFF766FF2268536855
:1018E0000B490B405360636C3343636441232022F4
:1018F000E25400232232A354023AA354280080BCAD
:10190000B846F0BD0025CBE7002DF7D0E3E7C04691
:1019100000E800FE70B504000D00160023689B6906
:101920009B0720D4320029002000FFF767FF002822
:101930001BD16B1CF2D0FFF739FD801BA84201D8E8
:10194000002DEBD123689B699B07E7D4636C2022B1
:10195000134363644123E25400232232A354023A26
:10196000A354012000E0002070BD0120FCE7F0B589
:10197000CE4600B582B007000D00160099463B68C0
:101980009C692C40641B63425C410196B44221D1A6
:101990004B460133F3D0FFF709FD089BC01A4845B9
:1019A00002D84B46002BEAD13B689B692B405B1B5E
:1019B0005A425341019A9342E1D17B6C2022134356
:1019C0007B644123FA5400232232BB54023ABB54B5
:1019D000012000E0002002B080BCB946F0BD00004C
:1019E00070B582B0040015001E008023F2B21948C1
:1019F00000905B042000FFF7E7FE079A069920009D
:101A0000FFF788FF00281ED1012E0ED12368EDB20A
:101A10009D62079B0093069B002280212000FFF718
:101A2000A6FF002813D102B070BD23682A0A9A626B
:101A3000079A06992000FFF76DFF002805D123685B
:101A4000EDB29D62E5E70120EDE70120EBE7012023
:101A5000E9E7C0460020008070B582B004001500A0
:101A60001E00DAB2184B00930023FFF7ADFE079A71
:101A700006992000FFF74EFF00281ED1012E0ED13F
:101A80002368EDB29D62079B0093069B00224021D4
:101A90002000FFF76CFF002813D102B070BD23684F
:101AA0002A0A9A62079A06992000FFF733FF002856
:101AB00005D12368EDB29D62E5E70120EDE7012045
:101AC000EBE70120E9E7C0460020008070B5040084
:101AD0000D00160003E023689B699B0612D523685E
:101AE0009B699B061BD4320029002000FFF786FE6D
:101AF000002816D1FFF75AFC801BA842EBD8002D16
:101B0000EDD1E8E7636C2022134363644123E25480
:101B100000232232A354023AA354012000E0002003
:101B200070BD0120FCE7704710B5041E59D0412359
:101B3000C35C002B43D041232422E2542268136863
:101B400001218B4313606368226827490B401361AE
:101B50002268936825490B409360E368012B34D0D9
:101B6000A168226884231B020B439360E368022B65
:101B700032D0226851681E4B0B4353602268D368F1
:101B80001A490B40D360236962691343A2691202A8
:101B900021681343CB60E369216A22680B43136019
:101BA0002268136801210B43136000236364412200
:101BB0001F31A15423630132A354002010BD4033D0
:101BC0000022C254FFF7AFFFB5E7A1682268802367
:101BD0001B020B439360C9E72368802212015A60FD
:101BE000C7E70120EAE7C046FFFFFFF0FF7FFFFFE6
:101BF00000800002704770B5041E13D041252423D5
:101C000043550268136801218B431360FFF7F2FF0D
:101C100000236364635523634222A354023AA3540E
:101C2000002070BD0120FCE7F0B587B004000391EF
:101C3000049205930CAB20CB1F884123C35C202B5F
:101C400000D0B3E0002D18D0002F16D04023C35C85
:101C5000012B00D1ADE040230122C254FFF7A6FBC7
:101C60000600802100901923012209022000FFF7BD
:101C70007EFE002806D0012099E080239B0063644B
:101C8000012094E041232122E25401331F32E25427
:101C90000023636465626785636301960E9B00930E
:101CA000059B049A03992000FFF79AFE00280FD1A4
:101CB000638D9BB2FF2B10D9FF2323857F3B00222E
:101CC00000925B04FF3203992000FFF77DFD21E0C5
:101CD00040230022E254012069E0628D92B2228505
:101CE0008023D2B2002100919B0403992000FFF7CA
:101CF0006BFD0FE0628D92B222858023D2B200216B
:101D000000919B0403992000FFF75EFD638D9BB259
:101D1000002B34D032000E992000FFF7FBFD002885
:101D200049D1626A236812789A62636A01336362F6
:101D3000638D013B9BB26385238D013B9BB2238561
:101D4000628D92B2002AE1D0002BDFD100960E9B6B
:101D5000002280212000FFF70AFE00282DD1638D8C
:101D60009BB2FF2BC6D9FF2323857F3B0022009225
:101D70005B04FF3203992000FFF726FDC6E732001F
:101D80000E992000FFF7A2FE002818D12368202218
:101D9000DA6121684B680B4D2B404B604123E254C4
:101DA00000232232A354023AA35400E0022007B0D9
:101DB000F0BD0220FBE70120F9E70120F7E7012051
:101DC000F5E7C04600E800FEF0B587B004000391D7
:101DD000049205930CAB20CB1F884123C35C202BBE
:101DE00000D0B5E0002D18D0002F16D04023C35CE2
:101DF000012B00D1AFE040230122C254FFF7D6FAF5
:101E00000600802100901923012209022000FFF71B
:101E1000AEFD002806D001209BE080239B00636478
:101E2000012096E041232222E25401331E32E25483
:101E30000023636465626785636301960E9B00936C
:101E4000059B049A03992000FFF706FE00280FD196
:101E5000638D9BB2FF2B10D9FF2323857F3B424A22
:101E600000925B04FF2203992000FFF7ADFC21E004
:101E700040230022E25401206BE0628D92B2228561
:101E80008023D2B2384900919B0403992000FFF7C8
:101E90009BFC0FE0628D92B222858023D2B200219A
:101EA00000919B0403992000FFF78EFC638D9BB289
:101EB000002B36D000960E9B002204212000FFF755
:101EC00056FD002849D123685A6A636A1A70636A0A
:101ED00001336362238D013B9BB22385628D013AFE
:101EE00092B26285628D92B2002ADFD0002BDDD1E2
:101EF00000960E9B002280212000FFF738FD00286D
:101F00002DD1638D9BB2FF2BC4D9FF2323857F3B4B
:101F1000002200925B04FF3203992000FFF754FC7B
:101F2000C4E732000E992000FFF7D0FD002818D139
:101F300023682022DA6121684B680C4D2B404B60EE
:101F40004123E25400232232A354023AA35400E076
:101F5000022007B0F0BD0220FBE70120F9E70120D5
:101F6000F7E70120F5E7C0460024008000E800FE06
:101F7000F0B5CE46474680B585B006008946904606
:101F80001D00002303934133C35C202B00D0A5E048
:101F900003689B691B0400D5A2E04023C35C012BAE
:101FA00000D19FE040230122C25401332332C254A6
:101FB00000234364F368012B17D04B469A05920D1A
:101FC0004C4B134332685360FFF7F0F90700326857
:101FD000916920230B40591E8B41DBB2926910247A
:101FE0001440621E9441E4B212E04B469A05920DF1
:101FF000414B1343E6E73268916920230B40591E99
:102000008B41DBB2926910241440621E9441E4B209
:102010001C4317D16B1CEED0FFF7C8F9C01BA842B8
:1020200001D8002DE7D120224123F254736C1343D1
:10203000736440230022F254012005B0C0BCB946AD
:10204000B046F0BD33689B69DB0622D500972B00B4
:10205000002220213000FFF78AFC002846D1336897
:102060001022DA6133681032DA61039B434522D0D3
:10207000039B01330393039B43459BD320224123BE
:10208000F254736C1343736440230022F254012012
:10209000D3E700972B00002220213000FFF767FCD8
:1020A000002821D132682023D3614122B354203348
:1020B0000022F254C1E7326851688023DB010B43F0
:1020C000536000972B00002220213000FFF74FFCC7
:1020D00000280DD133682022DA61C9E70220ACE77D
:1020E0000220AAE70220A8E70120A6E70120A4E732
:1020F0000120A2E700280002002000024123C05C6A
:10210000C0B27047406C7047F0B54123C35C202BD0
:1021100020D12033C35C012B1ED040240122025564
:10212000412524234355066833689343336006688A
:1021300033680A4F3B403360066833680B433360B3
:1021400001680B6813430B6020234355002303559C
:102150000020F0BD0220FCE70220FAE7FFEFFFFFBE
:10216000F0B54123C35C202B1ED12033C35C012B6F
:102170001CD04024012202554125242343550668E2
:1021800033689343336006683368094F3B40090264
:102190001943316001680B6813430B6020234355DA
:1021A000002303550020F0BD0220FCE70220FAE7DF
:1021B000FFF0FFFF10B5264BDA680C231340082B05
:1021C00042D00C2B07D0042B34D1214B1B68DB06EB
:1021D0003CD5204837E0910C0F230B401E49C85CCA
:1021E000920D03231A40541C194BDB68DB0309D5FD
:1021F0001A4A0023002101F02FF822000023FDF7E6
:10220000EBFF20E0124B1B68DB0609D5114A0023C7
:10221000002101F021F822000023FDF7DDFF12E08C
:102220000F4A0023002101F017F822000023FDF7D8
:10223000D3FF08E0064B5A68520B072313400133C3
:1022400080200002984010BD0448FCE70448FAE7EB
:102250000010024000093D005436000800127A00C8
:102260000024F400F0B583B0041E00D15DE2C14B40
:10227000DA680C251540DE6880235B021E40036887
:10228000DB0736D5082D2CD00C2D28D06368802292
:10229000520293424DD0A022D202934250D0B54B6D
:1022A0001A68B5490A401A601A68802149020A4032
:1022B0000192019A1A68B1490A401A606368002BBA
:1022C0004AD0FFF773F80700AA4B1B689B0310D492
:1022D000FFF76CF8C01B6428F6D9032026E2002E15
:1022E000D4D0A44B1B689B0303D56368002B00D19B
:1022F0001EE223689B0765D5E368042D3CD00C2DB6
:1023000038D0002B00D1B0E09A490A6809208243F6
:1023100013430B60FFF74AF80600964B1B685B07F8
:1023200000D599E0FFF742F8801B0228F5D9032079
:10233000FCE1904A116880235B020B431360BDE708
:102340008C4B19688022D2020A431A6019688022D5
:1023500052020A431A60B1E7FFF728F80700854BDD
:102360001B689B03C5D5FFF721F8C01B6428F6D96D
:102370000320DBE1002EC4D17E4A1268520702D549
:10238000002B00D1D6E17B4E72687D490A4021695D
:1023900009020A437260326809218A431343336099
:1023A000FFF708FFF26812090F231340754AD35C48
:1023B000D840754B1860754B1868FEF7AFFF0028C2
:1023C00000D0B3E12368DB062DD5002D60D1694B29
:1023D0001B689B0503D5A369002B00D1ACE1654ABE
:1023E00053686B490B40216A0B43536053681B02CF
:1023F0001B0AE16909060B435360216A490B01314D
:1024000080231B028B40D16809090F220A405D49D5
:102410008A5CD3405C4A13605C4B1868FEF77EFF11
:10242000002800D082E123681B077DD56369002B5B
:1024300067D0504A136D01210B431365FEF7B6FFB9
:1024400006004C4B1B6D9B076ED4FEF7AFFF801B45
:102450000228F6D9032069E146494B68484A1340EF
:102460002269120213434B60ACE7424A1368012110
:102470008B431360FEF79AFF06003E4B1B685B0719
:10248000A0D5FEF793FF801B0228F6D903204DE16B
:10249000A369002B22D0374A116880235B000B43CD
:1024A0001360FEF783FF0600324B1B689B0506D4C2
:1024B000FEF77CFF801B0228F6D9032036E12D4A67
:1024C000536833490B40216A0B43536053681B0226
:1024D0001B0AE16909060B435360A4E7254A136808
:1024E0002C490B401360FEF761FF0600214B1B686F
:1024F0009B0598D5FEF75AFF801B0228F6D90320CA
:1025000014E11C4A136D01218B431365FEF74EFF46
:102510000600184B1B6D9B0706D5FEF747FF801B77
:102520000228F6D9032001E123685B0700D48EE07E
:10253000104B9B6BDB001BD40E4A916B80235B0519
:102540000B4393630126144B1B68DB0528D5A36856
:1025500080225200934237D0002B4DD1054B1A6D8B
:102560000C490A401A651A6D0C490A401A6531E097
:102570000026E8E700100240FFFFFEFFFFFFFBFF21
:10258000FFE0FFFF6836000888130020C813002012
:10259000FF1FFFFFFFFEFFFF00700040FFFBFFFF7C
:1025A0006B4A116880235B000B431360FEF7FEFE4D
:1025B0000700674B1B68DB05C9D4FEF7F7FEC01B9D
:1025C0006428F6D90320B1E0624A116D80235B00D4
:1025D0000B431365A368002B28D0FEF7E7FE070026
:1025E0005C4B1B6D9B0530D4FEF7E0FEC01B5A4BC5
:1025F0009842F5D9032099E0A022D200934209D055
:10260000544B1A6D55490A401A651A6D54490A40CF
:102610001A65DFE74F4B196D013AFF3A0A431A6515
:10262000196D802252000A431A65D3E7FEF7BEFEF9
:102630000700484B1B6D9B0507D5FEF7B7FEC01B77
:10264000454B9842F5D9032070E0012E1AD0636AF9
:10265000002B00D172E00C2D4FD0022B18D03D4A38
:10266000136840490B401360FEF7A0FE0400394B8D
:102670001B689B013FD5FEF799FE001B0228F6D987
:10268000032053E0334A936B37490B409363DEE7F3
:10269000304A136833490B401360FEF787FE05008C
:1026A0002C4B1B689B0106D5FEF780FE401B0228C1
:1026B000F6D903203AE02749CB682C4A1340A26A96
:1026C000E06A0243206B02431343CB600A68802315
:1026D0005B0413430B60FEF769FE04001D4B1B688F
:1026E0009B0106D4FEF762FE001B0228F6D90320E8
:1026F0001CE000201AE0002018E0012B20D0154B30
:10270000DA6880235B021340A16A8B421AD1F0235E
:102710009B031340E16A8B4216D1C0231B041A406D
:10272000236B9A4212D1002000E0012003B0F0BDDB
:102730000120FBE70120F9E70120F7E70020F5E79A
:102740000120F3E70120F1E70120EFE70120EDE7A9
:10275000007000400010024088130000FFFEFFFFE1
:10276000FFFBFFFFFFFFFFFEFFFFFFEFFFFF02FF8B
:1027700070B505000C00002800D1D1E06A4B1A6842
:10278000012313408B4219D32B689B0706D5674A58
:10279000D368F0218B43A9680B43D3602B68DB0718
:1027A0007BD56B68022B20D0032B40D0012B44D06B
:1027B0005E4A126892051DD4012099E05A4A1368B6
:1027C00001218B4323431360FEF7F0FD0600564BB7
:1027D0001A6801231340A342D6D0FEF7E7FD801B01
:1027E000534A9042F3D9032082E0504A1268920380
:1027F00000D497E04D49CA68032082431343CB605D
:10280000FEF7D4FD06006B68022B1CD0032B28D0EA
:10281000012B34D0454BDB680C221A423DD0FEF729
:10282000C5FD801B424B9842F4D9032060E03F4A2B
:1028300012689201DED401205AE03C4A1268520725
:10284000D8D4012054E0394BDA680C231340082B0C
:1028500023D0FEF7ABFD801B354A9042F3D903200D
:1028600046E0324BDA680C2313400C2B15D0FEF7F0
:102870009DFD801B2E4B9842F3D9032038E02B4B53
:10288000DA680C231340042B07D0FEF78FFD801B62
:10289000274B9842F3D903202AE0234B1A680123DF
:1028A0001340A34225D82B685B0706D51F4AD3687F
:1028B00020490B40E9680B43D3602B681B0707D501
:1028C0001A49CB681C4A13402A69D2001343CB60D3
:1028D000FFF770FC154BDA6812090F231340174AF3
:1028E000D35CD840164B1860164B1868FEF716FDDF
:1028F00070BD0D4A136801218B4323431360FEF71B
:1029000055FD0600084B1A6801231340A342CAD0A4
:10291000FEF74CFD801B064B9842F3D90320E7E7F6
:102920000120E5E70120E3E700200240001002401B
:1029300088130000FFF8FFFFFFC7FFFF683600089D
:1029400088130020C8130020014B18687047C04648
:102950008813002010B5FFF7F7FF044BDA68120A5E
:1029600007231340024AD35CD84010BD0010024038
:102970006036000810B5FFF7E7FF044BDA68D20AAB
:1029800007231340024AD35CD84010BD0010024018
:102990006036000870B5040003689B064ED5614B95
:1029A0009B6BDB007ED45F4A916B80235B050B43FE
:1029B000936301265C4B1B68DB0575D5594B1B687F
:1029C00062685340C02189030B4205D0C0239B029B
:1029D0001100194099427CD0524B196DC0239B02C3
:1029E00008001840194215D01A40824212D02368BC
:1029F0009B060FD54B4B1A6D4C4911401D6D802025
:102A0000000328431865186D494D2840186519655D
:102A1000D20565D423689B060ED56368C022920256
:102A20001900114091426AD03E490B6D6268C02086
:102A30008002024013430B65012E6AD02368DB0736
:102A400006D5384AD36C03218B43A1680B43D3646A
:102A500023689B0706D5334AD36C0C218B43E1686E
:102A60000B43D36423685B0706D52E4AD36C3149E8
:102A70000B4021690B43D36423681B0706D5294A01
:102A8000D36C2D490B4061690B43D36423681B064B
:102A900045D5244AD36C29490B40A1690B43D36423
:102AA00000203DE0002685E71F4A116880235B0077
:102AB0000B431360FEF77AFC05001B4B1B68DB051C
:102AC00000D57BE7FEF772FC401B6428F5D9032094
:102AD00026E0144B1B689B0300D47DE701201FE018
:102AE000FEF764FC05000F4B1B6D9B0592D4FEF7AF
:102AF0005DFC401B124B9842F5D9032010E00949B8
:102B00000A6810480240C0208003034013430B6052
:102B10008AE7044A936B0C490B4093638EE70020CD
:102B200070BDC0460010024000700040FFFFFCFF77
:102B3000FFFFF7FFFFF3FFFFFFCFFFFFFFFFF3FFF5
:102B400088130000FFFFCFFFFFFFFFEF10B5EFF38B
:102B5000108C012282F3108801680B68124C23400C
:102B60000B608CF31088EFF3108C82F310880168EF
:102B70008B6893438B608CF31088036E012B06D017
:102B800080232022C25000230366836610BDEFF32A
:102B9000108183F31088026813683234FF34A34332
:102BA000136081F31088EBE7DFFEFFFFD0B5040070
:102BB00083680269134342691343C269134301687E
:102BC0000A689448024013430B6022685368924994
:102BD0000B40E1680B435360A16922688F4B9A4216
:102BE00001D0236A194393688D4803400B439360D7
:102BF00022688C4B9A4216D08B4B9A4224D0874B3A
:102C00009A4232D0102385498A425CD0E069802202
:102C10001202904200D192E0082B00D9F3E09B0011
:102C2000824AD3589F46824BD96C03230B40022B18
:102C300033D005D8002B32D0012B32D10333E2E759
:102C4000032B30D10533DEE7794BD96C0C230B40D5
:102C5000082B2AD005D8002B29D0042BD3D0102341
:102C6000D1E70C2B25D1043BCDE7714BDB6CC021A8
:102C700009010B40802109018B421CD007D8002B91
:102C80001BD08021C9008B4219D10423BBE7C0218E
:102C900009018B4215D10823B5E70223B3E70123CD
:102CA000B1E71023AFE71023ADE70223ABE7002322
:102CB000A9E71023A7E70223A5E70023A3E7102332
:102CC000A1E710239FE7042B34D00BD8002B10D0A2
:102CD000022B05D1564B1B68DB062ED455480DE060
:102CE00001206DE0082B02D18020000206E00120C7
:102CF00066E0FFF72FFE002800D176E062685300FF
:102D00009B18834200D972E01303834200D270E023
:102D1000070E060250080021801979410023FDF7B3
:102D20005BFA454BC218454B9A4264D82368D86079
:102D3000002045E0FFF73EFADDE74148DEE7082BDB
:102D40005BD89B003F4AD3589F46FFF703FE0028FD
:102D500055D0400061684B08C018FDF7B1F902007A
:102D6000103A394B9A424CD882B20F239A4340080A
:102D7000083B034013432268D360002020E0FFF7A4
:102D8000F9FDE4E72A4B1B68DB0604D42948E0E799
:102D9000FFF710FADBE72A48DBE7FFF7DBFD002847
:102DA00033D061684B081818FDF78AF90200103A11
:102DB000254B9A422BD823680004000CD8600020D1
:102DC0000023A366E366D0BDFFF7D4FDE7E7184B09
:102DD0001B68DB0607D41748E3E7FFF7EBF9DEE7EC
:102DE00080200002DDE71648DBE70020E8E701204D
:102DF000E6E70120E4E70120E2E70120E0E7002028
:102E0000DEE70120DCE70120DAE70020D8E7012037
:102E1000D6E7C046F369FFEFFFCFFFFF0048004051
:102E2000FFF4FFFF003801400044004098360008DE
:102E3000001002400024F40000FDFFFFFFFC0F0023
:102E400000093D00BC360008EFFF0000436ADB07C5
:102E500006D5026853682C490B40816A0B435360C6
:102E6000436A9B0706D50268536828490B40C16A2C
:102E70000B435360436A5B0706D5026853682449D5
:102E80000B40016B0B435360436A1B0706D5026876
:102E9000536820490B40416B0B435360436ADB0688
:102EA00006D5026893681C490B40816B0B43936005
:102EB000436A9B0606D50268936818490B40C16BAC
:102EC0000B439360436A5B060BD502685368144951
:102ED0000B40016C0B435360026C80235B039A42EE
:102EE0000AD0436A1B0606D5026853680D490B4099
:102EF000816C0B4353607047026853680A490B406A
:102F0000416C0B435360ECE7FFFFFDFFFFFFFEFF4B
:102F1000FFFFFBFFFF7FFFFFFFEFFFFFFFDFFFFF75
:102F2000FFFFEFFFFFFFF7FFFFFF9FFFF8B5CE4664
:102F3000474680B506000D0017009946089B984645
:102F40003368DC692C40641B63425C41BC422FD176
:102F500043460133F4D0FEF729FA4B46C01A4045E8
:102F60002BD84346002B2AD033681A685207E7D57E
:102F7000DA69120710D4DA691205E1D5802212014C
:102F80001A623000FFF7E2FD84232022F2500C3B4E
:102F90000022F25403200CE008241C623000FFF7EA
:102FA000D5FD8423F4500C3B0022F254012000E0B4
:102FB0000020C0BCB946B046F8BD0320F9E70320A5
:102FC000F7E7000030B583B0040084230022C2502C
:102FD000FEF7ECF9050023681B681B070FD4236874
:102FE0001B685B0729D42023E3678022A3500023BA
:102FF00023666366083AA354002003B030BD8021E5
:10300000224B00930300002289032000FFF78EFF6C
:103010000028E4D0EFF31081012383F310882268A5
:10302000136880208343136081F310882023E367B3
:1030300058330022E2547D38DFE78021134B0093A0
:103040002B000022C9032000FFF770FF0028CAD020
:10305000EFF31080012282F3108821680B680C4D79
:103060002B400B6080F31088EFF3108082F3108800
:1030700021688B6893438B6080F3108880231F3214
:10308000E250083B0022E2540320B6E7FFFFFF01B5
:10309000DFFEFFFF10B5041E2ED0C36F002B21D022
:1030A0002423E3672268136801218B431360200007
:1030B000FFF77CFD012814D0636A002B18D1226829
:1030C00053680E490B405360226893682A218B4352
:1030D00093602268136829390B4313602000FFF7BF
:1030E00071FF10BD78330022C254FDF773FBD7E7A0
:1030F0002000FFF7ABFEE2E70120F2E7FFB7FFFF9A
:1031000010B50020FEF774F80028FAD11B4C2100FE
:10311000FEF7CCF82378002B11D00020FEF7EEF854
:10312000FEF73AF8164B00221A605A600021002080
:10313000FEF7B0F8B0210020FEF79CF810BD114C4E
:1031400021000020FEF7CAF82378002B0CD00121C3
:103150000020FEF7B3F80A4B7B221A605A607B21ED
:103160000020FEF797F8D8E7054B00221A605A6056
:1031700000210020FEF78EF8E9E7C0461015002078
:10318000081500200515002010B5FFF7B9FF10BD88
:1031900070B5254B1B78012B00D070BD234C21004E
:1031A0000020FEF7A3F8A378012B03D01E4B0022CA
:1031B0001A70F2E71E4C21000020FEF7A7F82388C2
:1031C00001339BB22380032B11D0C82B13D0194B92
:1031D0001A68194B9A42E9D1164B00221A60174817
:1031E0000121FDF7C1FF1648FEF7E6F8DEE7114BB7
:1031F00000221A60EBE7A025ED050122042128003A
:10320000FEF7BDFA0B4C21680C4BC918C8230022ED
:103210000020FEF75BF82368C833236000220421F6
:103220002800FEF7ACFAD2E70415002014150020A0
:103230001A1500200015002088130000000000204F
:10324000B80B000010B5FFF7A3FF10BD014B012222
:103250001A70704704150020F0B5CE469946030C4D
:103260009C46130447461B0C1D000E0061460404D7
:10327000240C80B50700100C4B4365434143604369
:103280002C0CC01824188C46A34203D980235B025F
:103290009846C444494679435643230C2D042D0CCB
:1032A0008919634424046019C918C0BCB946B046E2
:1032B000F0BDC046F0B557464E464546DE46E0B541
:1032C00004000D009246994683B08B4230D82DD031
:1032D00049465046FCF7A0FF290006002000FCF7F5
:1032E0009BFF331A9846203B34D49B4653465A469C
:1032F000934042461F00534693401E00AF423BD8C6
:10330000AF4200D179E05B46A41BBD41002B00DA3F
:1033100076E0002200230092019301235A46934055
:103320000193012342469340009329E08242CFD982
:1033300000220023009201930C9B002B01D01C6003
:103340005D600098019903B0F0BCBB46B246A94647
:10335000A046F0BD42469B4620239B1A5246DA40C7
:10336000414613004A468A40170042461F435346CF
:1033700093401E00AF42C3D9002200230092019364
:103380004346002BD8D0FB0772081A4346467B08F9
:103390000EE0AB4201D1A2420CD8A41A9D410120FB
:1033A00024196D410021013E24184D41002E06D004
:1033B000AB42EED9013E24196D41002EF8D10098A0
:1033C00001995B4600196941002B24DB2B005A460A
:1033D0004446D3402A00E2401C005B461500002B07
:1033E0002ADB26009E40330026004746BE403200BE
:1033F000801A9941009001919EE7A342BCD882E7D0
:103400004246202300219B1A0022009101920122B2
:10341000DA40019285E7424620239B1A2A0046465D
:103420009A402300F340444613432A00E2401C0024
:103430005B461500002BD4DA42462F0020232600DD
:1034400097409B1ADE403B003343CDE7F0B50500C3
:10345000830749D0541E002A45D003000326CAB270
:1034600002E00135013C3ED301332A703342F8D1EA
:10347000032C30D9FF220A401502AD182A04AD18DA
:103480000F2C34D92700103F3F093E01B4461E00DF
:103490001A0010366644156055609560D56010328C
:1034A0009642F8D101373F01DB190F270C22274044
:1034B00022403C00002A0ED03E1FB608B400A446AD
:1034C0001A001C1D644420C2A242FCD10324013610
:1034D000B6009B193C40002C05D0C9B21C191970CC
:1034E00001339C42FBD1F0BD03001400C0E727006C
:1034F000E2E7C04670B50D4B0D4D5E1BB610AB42FA
:1035000005D0002408CD01349847A642FAD800F02F
:1035100095F8084B084D5E1BB610AB4205D0002451
:1035200008CD01349847A642FAD870BDE8360008A5
:10353000E8360008F0360008E83600087047C04654
:103540007047C046034B10B5002B02D0024800F074
:1035500005F810BD000000006D35000810B5010031
:1035600000230022002000F015F810BD70B5074CB4
:10357000074D641BA41005D0013CA300EB589847ED
:10358000002CF9D100F060F870BDC046F436000898
:10359000F0360008F0B5D6464F4646469846244BCE
:1035A000C0B5060018689A460F009146FFF7C6FF9F
:1035B000204B1D68002D32D053466C6818681F2CB4
:1035C00030DC002E0CD1631C0234A4006B60675108
:1035D000FFF7B6FF0020E0BCBA46B146A846F0BDF2
:1035E00049468822A300EB189950C42149008C4613
:1035F000AC446146873AA24009689146114362464D
:1036000011608421424649005A50022EDBD1290024
:103610004A468D31FF310B6813430B60D3E7064DEB
:103620001D60C9E7FFF78CFF01204042D3E7C04689
:10363000CC1300202015002024150020F8B5C0462A
:10364000F8BC08BC9E467047F8B5C046F8BC08BC3C
:043650009E467047DB
:10365400030406080C1018203000000000000000CD
:103664000102030400000000000000000102030442
:10367400060708093266664466AA11800811188193
:10368400181188118811880000FFFFFFFF5FAFFF4A
:10369400FF2F00009A2D0008C82D0008CE2D000829
:1036A400062E0008DA2D0008062E0008062E000853
:1036B400062E0008E02D00084A2D00087E2D000883
:1036C400842D0008FA2D0008902D0008FA2D00081A
:0C36D400FA2D0008FA2D0008522D000805
:0836E000D4FBFF7F0100000094
:0836E80045350008E10200086D
:0436F000B502000817
:1036F400FFFFFFFFFFFFFFFFFFFFFFFFFFFFFFFFD6
:10370400FFFFFFFFFFFFFFFFFFFFFFFFFFFFFFFFC5
:10371400FFFFFFFFFFFFFFFFFFFFFFFFFFFFFFFFB5
:10372400FFFFFFFFFFFFFFFFFFFFFFFFFFFFFFFFA5
:103D0400FF803FF803FFFFFFFFFFFFFFFFFFFFFE02
:103D1400007FFFFFFFFFFFFFFFFF803FF801FFFF72
:103D2400FFFFFFFFFFFFFFFFFE007FFFFFFFFFFF1F
:103D3400FFFFFFC03FF801FFFFFFFFFFFFFFFFFF93
:103D4400FFFE003FFFFFFFFFFFFFFFFFC01FF80163
:103D5400FFFFFFFFFFFFFFFFFFFFFF003FFFFFFF2E
:103D6400FFFFFFFFFFC01FFC01FFFFFFFFFFE00F8E
:103D7400FFFFFFFF003FFFFFFFFFFFFFFFFFC01F2D
:103D8400FC00000000003FE00F803FFFFF003FFF0A
:103D9400FFFFFFFFFFFFFFC01FFC00000000003F0C
:103DA400E00F803FFFFF003FFFFFFFFFFFFFFFFF2C
:103DB400C01FFC00000000003FF00F803FFFFF0029
:103DC4003FFFFFFFFFFFFFFFFFE00FFC00000000CD
:103DD400001FF00FC03FFFFF001FFFFFFFFFFFFFAB
:103DE400FFFFE00FFC00000000001FF000003FFF99
:103DF400FF801FFFFFFFFFFFFFFFFFE00FFE00003C
:103E04000000001FF000003FFFFF801FFFFFFFFFC7
:103E1400FFFFFFFFE00FFE00000000001FF00000A6
:103E24001FFFFF000FFFFFFFFFFFFFFFFFE00FFE7D
:103E3400007FE007FFFFF000001000000000000F0B
:103E4400FFFFFFFFFFFBF00FFE007FF007FFFFF80F
:103E540000001000000000000FFFFFFFFFFFF9F05B
:103E640007FE007FF007FFFFF800001000000000CD
:103E7400000FFFFFFFFFFFF9F007FF007FF007FFD0
:103E8400FFF800001000000000000FFFFFFFFFFF1D
:103E9400F8F007FF007FF003FFFFF80000080000C0
:103EA40000000007FFFFFFFFFFF87007FF007FF02F
:103EB40003FFFFF8000008000000000007FFFFFFF9
:103EC400FFFFF87007FF003FF003FFFFFC03E0086B
:103ED400000000000007FFFFFFFFFFF83807FF00A6
:103EE4003FF803FFFFFC03E008000000000007FFA9
:103EF400FFFFFFFFF83803FF00000000001FFC0372
:103F0400F008000000000007FFFFFFFFFFF81803A0
:103F1400FF80000000001FFC01F00FFFFFE007FF1F
:103F2400FFFFFFFFFFFFF01803FF80000000001FEA
:103F3400FC01F007FFFFE007FFFFFFFFFFFFFFF0BB
:103F44000803FF80000000000FFC01F007FFFFE002
:103F540007FFFFFFFFFFFFFFF008039F8000000043
:103F6400000FFE01F007FFFFE007FFFFFFFFFFFF69
:103F7400FFF804018F80000000000FFE01F007FF2E
:103F8400FFE003FFFFFFFFFFFFFFF80001078000D2
:103F94000000000FFE00F80780000000000FFFFF84
:103FA400FFFFFFFC000103C0000000000FFE00F84B
:103FB40007C0000000000FFFFFFFFFFFFE0000012D
:103FC400C01FFC00FFFFFE00F803C0000000000F4C
:103FD400FFFFFFFFFFFF000000C00FFC00FFFFFE1C
:103FE40000F803C0000000000FFFFFFFFFFFFF0009
:103FF4000000C00FFE00FFFFFF00F803C000000038
:104004000007FFFFFFFFFFFF800001C00FFE00FF5E
:10401400FFFF00FC03C00000000007FFFFFFFFFFDD
:10402400FFC00001E00FFE00FFFFFF007C03E00083
:1040340000000007FFFFFFFFFFFFC00003E00FFECB
:10404400007FFFFF000001E00000000007FFFFFF0A
:10405400FFFFFFE00007E00FFE007FFFFF0000010D
:10406400E001F800FFFFFFFFFFFFFFFFE0000F602C
:1040740007FE007FFFFF800001F001F801FFFFFF52
:10408400FFFFFFFFFFF0001F200000000003FF8080
:104094000001F800F800FFFFFFFFFFFFFFFFF8003B
:1040A4003F000000000003FF800001F800FC00FF57
:1040B400FFFFFFFFFFFFFFF8007F00000000000389
:1040C400FF800001FC007C00FFFFFFFFFFFFFFFFFC
:1040D400FC007F000000000003FF800000FE003CA5
:1040E40000FFFFFFFFFFFFFFFFFC007F0000000059
:1040F4000001FF800000FF001C00FFFFFFFFFFFF27
:10410400FFFFFE007E000000000001FFC00000FF72
:10411400001FFFFFFFFFFFFFFFFFFFFE003E000049
:1041240000000001FFC03E00FF800FFFFFFFFFFF04
:10413400FFFFFFFF000000000000000001FFC01FA0
:1041440000FF8007FFFFFFFFFFFFFFFFFF000000EE
:104154000003FF801FFFFFC01F00C000000000001D
:104164007FFFFFFFFFFF0000000003FF801FFFFF32
:10417400C01F004000000000007FFFFFFFFFFF00A2
:1041840000000001FF801FFFFFC01F00400000006F
:1041940000007FFFFFFFFFFF0000000001FFC01FC2
:1041A400FFFFE01F004000000000007FFFFFFFFF53
:1041B400FF8000000001FFC01FFFFFE01F806000C0
:1041C400000000007FFFFFFFFFFF8000000001FFF1
:1041D400C01FFFFFE00F806000000000007FFFFFB2
:1041E400FFFFFF8000000001FFC00FFFFFE00F8012
:1041F4002000000000003FFFFFFFFFFF80000020C1
:1042040000FFC00FFFFFE00F802000000000003F10
:10421400FFFFFFFFFFFFC01FF000000000003FF0A2
:104224000F803FFE001FFFFFFFFFFFFFFFFFFFE0C8
:104234001FF800000000003FF00F803FFF001FFF49
:10424400FFFFFFFFFFFFFFFFE00FF800000000008B
:104254003FF00FC03FFF800FFFFFFFFFFFFFFFFF97
:10426400FFE00FFC00000000003FF007C0380380AF
:1042740007FF803FFFFFFFFFFFFFE00FFE0000008E
:1042840000003FF007C01803C007FF803FFFFFFF97
:10429400FFFFFFE00FFE00000000001FF007C01842
:1042A40001C003FF801FFFFFFFFFFFFFE00FFF00C0
:1042B400000000001FF800001801E003FF801FFF4A
:1042C400FFFFFFFFFFF007FF801FFC07FFFFF80061
:1042D400001801E01FFF801FFFFFFFFFFFF0000732
:1042E400FF801FFE03FFFFF800001C000000000019
:1042F4001FFFFFFFFFFFF00007FFC00FFC00FFFFE1
:10430400F800001C00000000001FFFFFFFFFFFF08B
:1043140000000FC00FFC007FFFF800000C0000003D
:1043240000001FFFFFFFFFFFF0000007E007F80099
:104334007FFFF800000C00000000000FFFFFFFFFEC
:10434400FFF000000FE007F800FFFFFC00000C0086
:10435400000000000FFFFFFFFFFFF000000FF0035D
:10436400F000FFFFFC00000C00000000000FFFFF46
:10437400FFFFFFF000000FF003F001FFFFFFFFFF5E
:10438400FE00000000000FFFFFFFFFFFF000000F22
:10439400F801E001FFFFFFFFFFFE00000000000F37
:1043A400FFFFFFFFFFFF00000FF801E003FFFFFF27
:1043B400FFFFFE000000000007FFFFFFFFFFFFFFFD
:1043C400C00FFC00E003FFFFFFFFFFFFFFFFFFFF45
:1043D400FFFFFFFFFFFFFFFFFFFF8FFC03FC07FF53
:1043E400FFFFFFFFFFFFFFFFFFFFFFFFFFFFFFFFD9
:1043F400FFFFFFFFFE3FFF0FFFFFFFFFFFFFFFFF7A
:10440400FFFFFFFFFFFFFFFFFFFFFFFFFFFFFFFFB8
:10441400CFFFFFFFFFFFFFFFFFFFFFFFFFFFFFFFD8
:10442400FFFFFFFFFFFFFFFFFFFFFFFFFFFFFFFF98
:10443400FFFFFFFFFFFFFFFFFFFFFFFFFFFFFFFF88
:10444400FFFFFFFFFFFFFFFFFFFFFFFFFFFFFFFF78
:10445400FFFFFFFFFFFFFFFFFFFFFFFFFFFFFFFF68
:104A7400FFFFFFFFFFFFFFFF000020009709000872
:104A84008D09000887080008C7090008E70900081D
:104A940091080008A1080008110100003B0800006B
:104AA4003A1A00000CD7D69D01C700000300000687
:104AB4000000000001000000040000001C1500209C
:0400000508000835B2
:00000001FF
