:020000040800F2
:1000000000200020BD060008DD050008DF0500080F
:1000100000000000000000000000000000000000E0
:10002000000000000000000000000000E1050008E2
:100030000000000000000000E3050008E5050008DE
:100040000D0700080D0700080D0700080D07000840
:100050000D0700080D070008ED050008F70500086A
:10006000000000000D0700080D0700080D0700083C
:100070000D0700080D070008000000000D0700082C
:10008000000000000D070008000000000000000054
:100090000D070008000000000D0700080D0700080C
:1000A0000D0700080D0700080D0700080D070008E0
:1000B0000D0700080D070008000000000000000008
:1000C000002243088B4274D303098B425FD3030A97
:1000D0008B4244D3030B8B4228D3030C8B420DD3AA
:1000E000FF22090212BA030C8B4202D31212090238
:1000F00065D0030B8B4219D300E0090AC30B8B4276
:1001000001D3CB03C01A5241830B8B4201D38B0323
:10011000C01A5241430B8B4201D34B03C01A5241C8
:10012000030B8B4201D30B03C01A5241C30A8B420B
:1001300001D3CB02C01A5241830A8B4201D38B02F6
:10014000C01A5241430A8B4201D34B02C01A52419A
:10015000030A8B4201D30B02C01A5241CDD2C3090C
:100160008B4201D3CB01C01A524183098B4201D388
:100170008B01C01A524143098B4201D34B01C01A73
:10018000524103098B4201D30B01C01A5241C308EB
:100190008B4201D3CB00C01A524183088B4201D35A
:1001A0008B00C01A524143088B4201D34B00C01A46
:1001B0005241411A00D20146524110467047FFE7B2
:1001C00001B5002000F006F802BDC0460029F7D0B6
:1001D00076E770477047C046002B11D1002A0FD137
:1001E000002900D1002802D00021C943080007B42B
:1001F000024802A14018029003BDC046D9FFFFFF8C
:1002000003B4684601B5029801F06AFE019B9E4660
:1002100002B00CBC7047C04610B5002903D100F0F5
:1002200007F8203002E0080000F002F810BDC046D8
:100230001C2101231B04984201D3000C10391B0A16
:10024000984201D3000A08391B09984201D30009DA
:10025000043902A2105C40187047C0460403020231
:100260000101010100000000000000000448054BEE
:1002700010B5834203D0044B002B00D0984710BD2B
:100280001000002010000020000000000648074970
:10029000091A8B10C90FC91810B5491003D0044BA7
:1002A000002B00D0984710BD100000201000002047
:1002B0000000000010B5074C2378002B09D1FFF790
:1002C000D5FF054B002B02D0044800E000BF0123FE
:1002D000237010BD100000200000000068220008FC
:1002E000054B10B5002B03D00449054800E000BFC2
:1002F000FFF7CCFF10BDC046000000001400002036
:1003000068220008F0B589B01422002103A801F08A
:10031000B3FE354BDA6A01263243DA62DA6A3240DA
:100320000192019ADA6A02242243DA62DB6A2340EC
:100330000293029BA025ED050022E421280000F095
:100340002AFD2A4F00220321380000F024FD042357
:100350000393049605940024069403A9280000F052
:100360004DFC0823039388235B030493059403A99E
:10037000280000F043FCE0230393049605940694C0
:1003800003A9280000F03AFC032303930496059484
:10039000069403A9380000F031FC80235B0003932E
:1003A0000494059403A9280000F028FC80231B0274
:1003B000039384239B030493059403A9280000F06E
:1003C0001DFC00220121062000F004FC062000F0A4
:1003D00005FC00220021072000F0FCFB072000F0B4
:1003E000FDFB09B0F0BDC046001002400004005003
:1003F00010B51448144B0360144B43600023836012
:100400000122C260036143618361C361036200F042
:10041000D7FC00280CD10B48002100F037FD002844
:1004200009D10848002100F05DFD002806D110BD6B
:1004300000F03EF8EFE700F03BF8F2E700F038F8A4
:10044000F5E7C0462C00002000540040583D500005
:1004500010B586B004001422002101A801F00CFEA2
:100460002268104B9A4201D006B010BD0E4CE26AD1
:1004700002231A43E262E26A13400093009BC02306
:100480000193AE3B02930F3B0493023B059301A9FA
:10049000064800F0B3FBA26B80239B031343A363C6
:1004A000E2E7C04600540040001002400004005043
:1004B00072B6FEE700B59BB0342200210DA801F012
:1004C000DBFD1422002108A801F0D6FD1C2200212A
:1004D00001A801F0D1FD1A490A681A4B1A4080237D
:1004E0001B0113430B6002230D93013B10930F3349
:1004F0001193002316930DA800F076FD002819D162
:100500000F2308930E3B099300230A930B930C933C
:10051000002108A800F0EEFF00280DD10923019367
:1005200000230393069301A801F0F6F8002805D1F3
:100530001BB000BDFFF7BCFFFFF7BAFFFFF7B8FF26
:1005400000700040FFE7FFFF10B582B000F0BEFA78
:10055000FFF7B0FFFFF7D6FEFFF74AFF00F060F8A5
:1005600000F038F91348FF2300930023C822C82164
:1005700000F094F9FF2000F0EFF90F4B1B78012BEE
:10058000FBD100F027F9002401940C4B0093C82301
:10059000C8220021002000F014FA064800F0FAF901
:1005A000FA20800000F0B8FAFF2000F0D5F9024BE5
:1005B0001C70E2E780000020081400208022000860
:1005C000054B5A6B01210A435A63996B80225205ED
:1005D0000A439A637047C04600100240FEE7FEE7F8
:1005E0007047704710B500F085FA10BD10B50820AF
:1005F00000F0D8FB10BD10B58020000200F0D2FB47
:1006000010BD000080231B02984200D07047024BAF
:1006100001221A70FAE7C046081400207047000053
:1006200010B50C480C4B0360E1235B0243600023D0
:100630008360C36003610C2242618361C361036212
:10064000436201F0E9FB002800D110BDFFF730FF45
:10065000FBE7C0460C1400200038014010B586B0FE
:1006600004001422002101A801F006FD2268114BAC
:100670009A4201D006B010BD0F4B596B8022D201B7
:100680000A435A63D96A01221143D962DB6A1A40CC
:100690000092009BC023DB000193022302930133ED
:1006A000049301330593A02001A9C00500F0A6FA28
:1006B000E0E7C04600380140001002400D48854682
:1006C000FFF7ACFF0C480D490D4A002302E0D45857
:1006D000C4500433C4188C42F9D30A4A0A4C00238C
:1006E00001E013600432A242FBD301F019FDFFF7D1
:1006F0002BFFFEE70020002000000020100000205B
:10070000883600081000002054160020FEE770B55F
:100710000400A02000228021C00500F03CFB002541
:100720000FE0A02000222021C00500F034FBA02013
:1007300001224021C00500F02EFB6400E4B2013527
:10074000EDB2072D0FD8A02000224021C00500F0F7
:1007500022FB63B2002BE4DAA02001222021C00595
:1007600000F019FBE3E7A02001228021C00500F082
:1007700012FB70BD70B50400074D00220121280056
:1007800000F009FB2000FFF7C2FF01220121280031
:1007900000F001FB70BDC0460004005010B5FFF72B
:1007A000B6FF10BD10B58021A0204900C00500F0A3
:1007B000EBFA0028F7D110BD10B52220FFF7DAFFC1
:1007C000F720FFF7EBFF2020FFF7D4FFFFF7EAFF4A
:1007D00010BD000010B5304C00220221200000F0B6
:1007E000DAFA142000F098F901220221200000F02A
:1007F000D2FA142000F090F9FFF7D4FF1220FFF78F
:10080000B9FFFFF7CFFF0120FFF7B4FFC720FFF7C5
:10081000C5FF0020FFF7C2FF0120FFF7BFFF112037
:10082000FFF7A8FF0120FFF7B9FF4420FFF7A2FF61
:100830000020FFF7B3FF1820FFF7B0FF4520FFF7B8
:1008400099FFC720FFF7AAFF0020FFF7A7FF0020AE
:10085000FFF7A4FF0020FFF7A1FF3C20FFF78AFF6E
:100860000520FFF79BFF1820FFF784FF8020FFF78C
:1008700095FF4E20FFF77EFF0020FFF78FFF4F20F0
:10088000FFF778FFC720FFF789FF0020FFF786FFFB
:10089000FFF788FF10BDC0460004005030B50F4C74
:1008A000002525602060E1602261039860614807AF
:1008B0000CD1CC080948C46102628361002B08D0C6
:1008C000B42B06D0054B5A60996005E0CC08013482
:1008D000F0E7024B59609A6030BDC0469414002086
:1008E00030B51C4B9B69B42B24D019D8002B06D0F3
:1008F0005A2B14D1174BDB685B1A0100581EC30832
:10090000144CE5696943591823685C185B5C002A3C
:1009100018D107210140813A0A411340237030BDAC
:1009200087246400A342FAD10A4B1B691B1A0800F2
:10093000591EE4E7074CE368181A01382369591A6D
:100940000139DCE70721014080220A41134323706B
:10095000E5E7C0469414002010B500240AE0634384
:100960009B1808490968C8540132064BDB69934259
:10097000F5D80134034B1B6AA34201D90022F4E7E6
:1009800010BDC0469414002010B501390138FFF79E
:10099000A7FF10BDF8B506002420FFF7EBFE0025E9
:1009A000002707E0705DFFF7F9FE01350134C72C21
:1009B000F8D90137182F01D80024F8E7FFF7FCFE1B
:1009C000F8BDF0B5DE4657464E464546E0B587B021
:1009D00002909346119A90460200013204924D1CF7
:1009E000D80807210A001A40194200D001228318B2
:1009F00005930195049F002600239A4603962FE055
:100A000043465A425A4129003800FFF7BDFF760895
:100A100001350134072C07D8F307F1D542462900E8
:100A20003800FFF7B1FFF2E77B1C029ABF1A5F455F
:100A30000ED001229446E144019D1F00D9450CD2FD
:100A4000109B52469E5C01239C46E2440024E1E751
:100A5000019B08330193049BEBE7039B0133039352
:100A6000039B059A934202D200239946E6E707B01A
:100A7000F0BCBB46B246A946A046F0BD10B5040086
:100A80000F4B1978FA208000FFF71AFB01000D4B7D
:100A90001868FFF715FB00F0ADF800280DD1032C06
:100AA00001D901200AE0013000222100404200F07B
:100AB00091F8054B1C60002000E0012010BDC046ED
:100AC00004000020000000200800002010B5084AA3
:100AD000136840210B4313600320FFF7CFFF041E70
:100AE00002D00124200010BDFFF76AFDFAE7C046DE
:100AF00000200240034A1168034B1B785B18136007
:100B00007047C046B814002004000020014B18684C
:100B10007047C046B814002070B50400FFF7F6FF18
:100B20000500631C02D0044B1B78E418FFF7EEFFAE
:100B3000401BA042FAD370BD0400002070B500280D
:100B400011DB8308134DC0339B005C590322104016
:100B5000C000FC3216008640B44389010A4082403E
:100B600022435A5170BD0F230340083B9B080633B4
:100B70009B00094A944663445C6803221040C0000D
:100B8000FC3215008540AC4389010A408240224373
:100B90005A60E7E700E100E000ED00E00138802363
:100BA0005B0498420FD2094A50600948036A1B024D
:100BB0001B0AC02109060B4303620023936007331D
:100BC0001360002070470120FCE7C04610E000E001
:100BD00000ED00E010B5FFF7B1FF10BD002805DB08
:100BE0001F22024001239340014A13607047C04610
:100BF00000E100E010B5FFF7D1FF10BDF0B5002314
:100C000056E086685F000324BC40A643CC68BC4025
:100C100034438460446894434E683609012232406C
:100C20009A402243426053E0DE080836B600375847
:100C300005321A4092000F249440A7430C69944057
:100C400022003A43325056E0052600E00026A64036
:100C500034003C4302329200444E9451444A976817
:100C6000EA433E00AE434C68E40201D53E002E4309
:100C70003F4CA660E7683E0016404C68A40201D5D0
:100C80003E002E433A4CE66067683E0016404C68D2
:100C9000A40301D53E002E43354C666026683240E1
:100CA0004C68E40301D52A003243314C2260013301
:100CB0000C682200DA4057D001229A4025001540E6
:100CC0001442F4D04E6803243440013C012C98D9DE
:100CD0004C6803222240032A08D0C4685E00032225
:100CE000B24094438A68B2402243C2604C680322F7
:100CF0002240022A98D004685E0003221700B74001
:100D0000BC434F683A40B240224302604C68C02264
:100D100092021442CBD0174C626B012632436263BD
:100D20009A08941CA400114EA75903241C40A40047
:100D30000F26A640B743A026F605B04286D00E4E39
:100D4000B0420BD00D4EB0420AD00D4EB04209D089
:100D50000C4EB04200D177E7062678E7012676E709
:100D6000022674E7032672E7F0BDC046000001408A
:100D70000004014000100240000400500008005030
:100D8000000C0050001C005003690B4201D00120F0
:100D900070470020FCE7002A01D081617047816222
:100DA000FCE7000010B5054B5B69184200D110BD8F
:100DB000024B5861FFF726FCF9E7C04600040140EA
:100DC00010B5041E59D04123C35C002B43D04123EE
:100DD0002422E2542268136801218B431360636864
:100DE000226827490B4013612268936825490B400C
:100DF0009360E368012B34D0A168226884231B022E
:100E00000B439360E368022B32D0226851681E4B7B
:100E10000B4353602268D3681A490B40D36023699F
:100E200062691343A269120221681343CB60E3692C
:100E3000216A22680B4313602268136801210B4367
:100E400013600023636441221F31A15423630132E4
:100E5000A354002010BD40330022C254FFF7F8FA1B
:100E6000B5E7A168226880231B020B439360C9E7A2
:100E70002368802212015A60C7E70120EAE7C046D2
:100E8000FFFFFFF0FF7FFFFF00800002F0B541236E
:100E9000C35C202B20D12033C35C012B1ED0402407
:100EA00001220255412524234355066833689343A4
:100EB0003360066833680A4F3B4033600668336826
:100EC0000B43336001680B6813430B6020234355C9
:100ED000002303550020F0BD0220FCE70220FAE7C2
:100EE000FFEFFFFFF0B54123C35C202B1ED1203361
:100EF000C35C012B1CD04024012202554125242330
:100F00004355066833689343336006683368094F76
:100F10003B4009021943316001680B6813430B60C1
:100F200020234355002303550020F0BD0220FCE799
:100F30000220FAE7FFF0FFFF10B5264BDA680C231A
:100F40001340082B42D00C2B07D0042B34D1214B5B
:100F50001B68DB063CD5204837E0910C0F230B4083
:100F60001E49C85C920D03231A40541C194BDB68C0
:100F7000DB0309D51A4A0023002100F083FF220079
:100F80000023FFF729F920E0124B1B68DB0609D587
:100F9000114A0023002100F075FF22000023FFF713
:100FA0001BF912E00F4A0023002100F06BFF220022
:100FB0000023FFF711F908E0064B5A68520B07238C
:100FC0001340013380200002984010BD0448FCE724
:100FD0000448FAE70010024000093D000836000806
:100FE00000127A000024F400F0B583B0041E00D192
:100FF0005DE2C14BDA680C251540DE6880235B0298
:101000001E400368DB0736D5082D2CD00C2D28D0C8
:1010100063688022520293424DD0A022D2029342B2
:1010200050D0B54B1A68B5490A401A601A68802139
:1010300049020A400192019A1A68B1490A401A60AD
:101040006368002B4AD0FFF761FD0700AA4B1B68BD
:101050009B0310D4FFF75AFDC01B6428F6D9032068
:1010600026E2002ED4D0A44B1B689B0303D56368F3
:10107000002B00D11EE223689B0765D5E368042D91
:101080003CD00C2D38D0002B00D1B0E09A490A6832
:101090000920824313430B60FFF738FD0600964B8F
:1010A0001B685B0700D599E0FFF730FD801B022825
:1010B000F5D90320FCE1904A116880235B020B43C1
:1010C0001360BDE78C4B19688022D2020A431A6074
:1010D0001968802252020A431A60B1E7FFF716FD31
:1010E0000700854B1B689B03C5D5FFF70FFDC01B91
:1010F0006428F6D90320DBE1002EC4D17E4A1268B1
:10110000520702D5002B00D1D6E17B4E72687D4993
:101110000A40216909020A437260326809218A4340
:1011200013433360FFF708FFF26812090F231340DF
:10113000754AD35CD840754B1860754B1868FFF73B
:101140009DFC002800D0B3E12368DB062DD5002DDF
:1011500060D1694B1B689B0503D5A369002B00D1A7
:10116000ACE1654A53686B490B40216A0B435360FD
:1011700053681B021B0AE16909060B435360216A8D
:10118000490B013180231B028B40D16809090F22D2
:101190000A405D498A5CD3405C4A13605C4B186826
:1011A000FFF76CFC002800D082E123681B077DD587
:1011B0006369002B67D0504A136D01210B431365FF
:1011C000FFF7A4FC06004C4B1B6D9B076ED4FFF78A
:1011D0009DFC801B0228F6D9032069E146494B6833
:1011E000484A13402269120213434B60ACE7424A5B
:1011F000136801218B431360FFF788FC06003E4B08
:101200001B685B07A0D5FFF781FC801B0228F6D97D
:1012100003204DE1A369002B22D0374A11688023B7
:101220005B000B431360FFF771FC0600324B1B6839
:101230009B0506D4FFF76AFC801B0228F6D9032021
:1012400036E12D4A536833490B40216A0B43536002
:1012500053681B021B0AE16909060B435360A4E7AC
:10126000254A13682C490B401360FFF74FFC06001A
:10127000214B1B689B0598D5FFF748FC801B022873
:10128000F6D9032014E11C4A136D01218B43136529
:10129000FFF73CFC0600184B1B6D9B0706D5FFF7BC
:1012A00035FC801B0228F6D9032001E123685B0787
:1012B00000D48EE0104B9B6BDB001BD40E4A916B6D
:1012C00080235B050B4393630126144B1B68DB05EE
:1012D00028D5A36880225200934237D0002B4DD1ED
:1012E000054B1A6D0C490A401A651A6D0C490A40E3
:1012F0001A6531E00026E8E700100240FFFFFEFF1C
:10130000FFFFFBFFFFE0FFFF1C360008000000208E
:1013100008000020FF1FFFFFFFFEFFFF00700040DE
:10132000FFFBFFFF6B4A116880235B000B431360D8
:10133000FFF7ECFB0700674B1B68DB05C9D4FFF721
:10134000E5FBC01B6428F6D90320B1E0624A116DA9
:1013500080235B000B431365A368002B28D0FFF7A5
:10136000D5FB07005C4B1B6D9B0530D4FFF7CEFB14
:10137000C01B5A4B9842F5D9032099E0A022D20015
:10138000934209D0544B1A6D55490A401A651A6D9B
:1013900054490A401A65DFE74F4B196D013AFF3A8D
:1013A0000A431A65196D802252000A431A65D3E771
:1013B000FFF7ACFB0700484B1B6D9B0507D5FFF7FC
:1013C000A5FBC01B454B9842F5D9032070E0012EC8
:1013D0001AD0636A002B00D172E00C2D4FD0022B83
:1013E00018D03D4A136840490B401360FFF78EFB4D
:1013F0000400394B1B689B013FD5FFF787FB001B9F
:101400000228F6D9032053E0334A936B37490B4047
:101410009363DEE7304A136833490B401360FFF7EC
:1014200075FB05002C4B1B689B0106D5FFF76EFB77
:10143000401B0228F6D903203AE02749CB682C4A02
:101440001340A26AE06A0243206B02431343CB605D
:101450000A6880235B0413430B60FFF757FB04000B
:101460001D4B1B689B0106D4FFF750FB001B022895
:10147000F6D903201CE000201AE0002018E0012B20
:1014800020D0154BDA6880235B021340A16A8B429F
:101490001AD1F0239B031340E16A8B4216D1C0237B
:1014A0001B041A40236B9A4212D1002000E0012055
:1014B00003B0F0BD0120FBE70120F9E70120F7E7C9
:1014C0000020F5E70120F3E70120F1E70120EFE735
:1014D0000120EDE70070004000100240881300007A
:1014E000FFFEFFFFFFFBFFFFFFFFFFFEFFFFFFEF22
:1014F000FFFF02FF70B505000C00002800D1D1E00D
:101500006A4B1A68012313408B4219D32B689B073F
:1015100006D5674AD368F0218B43A9680B43D36093
:101520002B68DB077BD56B68022B20D0032B40D0C8
:10153000012B44D05E4A126892051DD4012099E027
:101540005A4A136801218B4323431360FFF7DEFAE5
:101550000600564B1A6801231340A342D6D0FFF76A
:10156000D5FA801B534A9042F3D9032082E0504AB7
:101570001268920300D497E04D49CA680320824361
:101580001343CB60FFF7C2FA06006B68022B1CD036
:10159000032B28D0012B34D0454BDB680C221A4298
:1015A0003DD0FFF7B3FA801B424B9842F4D9032099
:1015B00060E03F4A12689201DED401205AE03C4AC2
:1015C00012685207D8D4012054E0394BDA680C2352
:1015D0001340082B23D0FFF799FA801B354A90421D
:1015E000F3D9032046E0324BDA680C2313400C2B6E
:1015F00015D0FFF78BFA801B2E4B9842F3D90320AE
:1016000038E02B4BDA680C231340042B07D0FFF78C
:101610007DFA801B274B9842F3D903202AE0234B05
:101620001A6801231340A34225D82B685B0706D50F
:101630001F4AD36820490B40E9680B43D3602B68ED
:101640001B0707D51A49CB681C4A13402A69D200E8
:101650001343CB60FFF770FC154BDA6812090F23B8
:101660001340174AD35CD840164B1860164B1868C5
:10167000FFF704FA70BD0D4A136801218B43234321
:101680001360FFF743FA0600084B1A680123134062
:10169000A342CAD0FFF73AFA801B064B9842F3D90F
:1016A0000320E7E70120E5E70120E3E7002002400F
:1016B0000010024088130000FFF8FFFFFFC7FFFF84
:1016C0001C3600080000002008000020014B1868AC
:1016D0007047C0460000002010B5FFF7F7FF044B2D
:1016E000DA68120A07231340024AD35CD84010BDBF
:1016F000001002401436000810B5FFF7E7FF044B56
:10170000DA68D20A07231340024AD35CD84010BDDE
:10171000001002401436000870B5040003689B06F0
:101720004ED5614B9B6BDB007ED45F4A916B80236F
:101730005B050B43936301265C4B1B68DB0575D58A
:10174000594B1B6862685340C02189030B4205D086
:10175000C0239B021100194099427CD0524B196D55
:10176000C0239B0208001840194215D01A4082423B
:1017700012D023689B060FD54B4B1A6D4C49114074
:101780001D6D8020000328431865186D494D2840C1
:1017900018651965D20565D423689B060ED5636864
:1017A000C02292021900114091426AD03E490B6D4D
:1017B0006268C0208002024013430B65012E6AD08C
:1017C0002368DB0706D5384AD36C03218B43A16815
:1017D0000B43D36423689B0706D5334AD36C0C2193
:1017E0008B43E1680B43D36423685B0706D52E4A1D
:1017F000D36C31490B4021690B43D36423681B0729
:1018000006D5294AD36C2D490B4061690B43D3643B
:1018100023681B0645D5244AD36C29490B40A1698E
:101820000B43D36400203DE0002685E71F4A116882
:1018300080235B000B431360FFF768F905001B4B27
:101840001B68DB0500D57BE7FFF760F9401B6428C8
:10185000F5D9032026E0144B1B689B0300D47DE7D9
:1018600001201FE0FFF752F905000F4B1B6D9B0590
:1018700092D4FFF74BF9401B124B9842F5D9032045
:1018800010E009490A6810480240C0208003034064
:1018900013430B608AE7044A936B0C490B40936334
:1018A0008EE7002070BDC04600100240007000406E
:1018B000FFFFFCFFFFFFF7FFFFF3FFFFFFCFFFFF7F
:1018C000FFFFF3FF88130000FFFFCFFFFFFFFFEFD5
:1018D00010B5EFF3108C012282F3108801680B68B9
:1018E000124C23400B608CF31088EFF3108C82F3C2
:1018F000108801688B6893438B608CF31088036EAB
:10190000012B06D080232022C25000230366836669
:1019100010BDEFF3108183F310880268136832342E
:10192000FF34A343136081F31088EBE7DFFEFFFF72
:10193000D0B5040083680269134342691343C26946
:10194000134301680A689448024013430B602268FD
:10195000536892490B40E1680B435360A1692268C8
:101960008F4B9A4201D0236A194393688D480340F4
:101970000B43936022688C4B9A4216D08B4B9A4251
:1019800024D0874B9A4232D0102385498A425CD0BA
:10199000E06980221202904200D192E0082B00D927
:1019A000F3E09B00824AD3589F46824BD96C0323B5
:1019B0000B40022B33D005D8002B32D0012B32D173
:1019C0000333E2E7032B30D10533DEE7794BD96CE3
:1019D0000C230B40082B2AD005D8002B29D0042B30
:1019E000D3D01023D1E70C2B25D1043BCDE7714B8D
:1019F000DB6CC02109010B40802109018B421CD006
:101A000007D8002B1BD08021C9008B4219D1042399
:101A1000BBE7C02109018B4215D10823B5E702239A
:101A2000B3E70123B1E71023AFE71023ADE70223AB
:101A3000ABE70023A9E71023A7E70223A5E70023CC
:101A4000A3E71023A1E710239FE7042B34D00BD882
:101A5000002B10D0022B05D1564B1B68DB062ED471
:101A600055480DE001206DE0082B02D180200002D6
:101A700006E0012066E0FFF72FFE002800D176E0A7
:101A8000626853009B18834200D972E013038342BB
:101A900000D270E0070E060250080021801979413B
:101AA0000023FEF799FB454BC218454B9A4264D878
:101AB0002368D860002045E0FFF73EFADDE74148A3
:101AC000DEE7082B5BD89B003F4AD3589F46FFF7C1
:101AD00003FE002855D0400061684B08C018FEF78F
:101AE000EFFA0200103A394B9A424CD882B20F23D7
:101AF0009A434008083B034013432268D360002008
:101B000020E0FFF7F9FDE4E72A4B1B68DB0604D46D
:101B10002948E0E7FFF710FADBE72A48DBE7FFF7A1
:101B2000DBFD002833D061684B081818FEF7C8FAAF
:101B30000200103A254B9A422BD823680004000C6F
:101B4000D86000200023A366E366D0BDFFF7D4FD74
:101B5000E7E7184B1B68DB0607D41748E3E7FFF7F6
:101B6000EBF9DEE780200002DDE71648DBE7002026
:101B7000E8E70120E6E70120E4E70120E2E70120B1
:101B8000E0E70020DEE70120DCE70120DAE70020C3
:101B9000D8E70120D6E7C046F369FFEFFFCFFFFF8C
:101BA00000480040FFF4FFFF0038014000440040BF
:101BB0002C360008001002400024F40000FDFFFF56
:101BC000FFFC0F0000093D0050360008EFFF000049
:101BD000436ADB0706D5026853682C490B40816ACB
:101BE0000B435360436A9B0706D502685368284934
:101BF0000B40C16A0B435360436A5B0706D502681A
:101C0000536824490B40016B0B435360436A1B0725
:101C100006D50268536820490B40416B0B43536063
:101C2000436ADB0606D5026893681C490B40816B4A
:101C30000B439360436A9B0606D502689368184974
:101C40000B40C16B0B439360436A5B060BD5026884
:101C5000536814490B40016C0B435360026C8023A2
:101C60005B039A420AD0436A1B0606D50268536892
:101C70000D490B40816C0B435360704702685368F9
:101C80000A490B40416C0B435360ECE7FFFFFDFF3B
:101C9000FFFFFEFFFFFFFBFFFF7FFFFFFFEFFFFFE9
:101CA000FFDFFFFFFFFFEFFFFFFFF7FFFFFF9FFFDC
:101CB000F8B5CE46474680B506000D001700994698
:101CC000089B98463368DC692C40641B63425C4186
:101CD000BC422FD143460133F4D0FEF717FF4B46E9
:101CE000C01A40452BD84346002B2AD033681A68C7
:101CF0005207E7D5DA69120710D4DA691205E1D57F
:101D0000802212011A623000FFF7E2FD84232022B4
:101D1000F2500C3B0022F25403200CE008241C6219
:101D20003000FFF7D5FD8423F4500C3B0022F25421
:101D3000012000E00020C0BCB946B046F8BD032039
:101D4000F9E70320F7E7000030B583B004008423EF
:101D50000022C250FEF7DAFE050023681B681B074D
:101D60000FD423681B685B0729D42023E3678022F4
:101D7000A350002323666366083AA354002003B0EF
:101D800030BD8021224B00930300002289032000F4
:101D9000FFF78EFF0028E4D0EFF31081012383F3D7
:101DA00010882268136880208343136081F31088B1
:101DB0002023E36758330022E2547D38DFE7802197
:101DC000134B00932B000022C9032000FFF770FF84
:101DD0000028CAD0EFF31080012282F31088216816
:101DE0000B680C4D2B400B6080F31088EFF31080D4
:101DF00082F3108821688B6893438B6080F310888E
:101E000080231F32E250083B0022E2540320B6E751
:101E1000FFFFFF01DFFEFFFF10B5041E2ED0C36FD2
:101E2000002B21D02423E3672268136801218B4310
:101E300013602000FFF77CFD012814D0636A002B9B
:101E400018D1226853680E490B405360226893688A
:101E50002A218B4393602268136829390B4313604E
:101E60002000FFF771FF10BD78330022C254FEF747
:101E7000F5FBD7E72000FFF7ABFEE2E70120F2E732
:101E8000FFB7FFFFF0B5CE469946030C9C461304FE
:101E900047461B0C1D000E0061460404240C80B54F
:101EA0000700100C4B436543414360432C0CC018A2
:101EB00024188C46A34203D980235B029846C4446D
:101EC000494679435643230C2D042D0C891963444C
:101ED00024046019C918C0BCB946B046F0BDC0465C
:101EE000F0B557464E464546DE46E0B504000D00C7
:101EF0009246994683B08B4230D82DD04946504601
:101F0000FEF78AF9290006002000FEF785F9331A4A
:101F10009846203B34D49B4653465A46934042460B
:101F20001F00534693401E00AF423BD8AF4200D142
:101F300079E05B46A41BBD41002B00DA76E000226D
:101F400000230092019301235A46934001930123F9
:101F500042469340009329E08242CFD900220023D9
:101F6000009201930C9B002B01D01C605D600098D7
:101F7000019903B0F0BCBB46B246A946A046F0BDED
:101F800042469B4620239B1A5246DA4041461300A4
:101F90004A468A40170042461F43534693401E005C
:101FA000AF42C3D900220023009201934346002B85
:101FB000D8D0FB0772081A4346467B080EE0AB42B6
:101FC00001D1A2420CD8A41A9D41012024196D41CF
:101FD0000021013E24184D41002E06D0AB42EED91F
:101FE000013E24196D41002EF8D1009801995B46FD
:101FF00000196941002B24DB2B005A464446D3408C
:102000002A00E2401C005B461500002B2ADB26005C
:102010009E40330026004746BE403200801A994158
:10202000009001919EE7A342BCD882E7424620235C
:1020300000219B1A0022009101920122DA400192B4
:1020400085E7424620239B1A2A0046469A402300F1
:10205000F340444613432A00E2401C005B4615004F
:10206000002BD4DA42462F002023260097409B1AEB
:10207000DE403B003343CDE7F0B50500830749D090
:10208000541E002A45D003000326CAB202E00135DF
:10209000013C3ED301332A703342F8D1032C30D9AE
:1020A000FF220A401502AD182A04AD180F2C34D9AE
:1020B0002700103F3F093E01B4461E001A001036AB
:1020C0006644156055609560D56010329642F8D12F
:1020D00001373F01DB190F270C22274022403C002B
:1020E000002A0ED03E1FB608B400A4461A001C1DDC
:1020F000644420C2A242FCD103240136B6009B19DD
:102100003C40002C05D0C9B21C19197001339C4207
:10211000FBD1F0BD03001400C0E72700E2E7C04692
:1021200070B50D4B0D4D5E1BB610AB4205D00024B3
:1021300008CD01349847A642FAD800F095F8084B2C
:10214000084D5E1BB610AB4205D0002408CD01340B
:102150009847A642FAD870BD7C3600087C36000845
:10216000843600087C3600087047C0467047C04679
:10217000034B10B5002B02D0024800F005F810BD4B
:10218000000000009921000810B501000023002282
:10219000002000F015F810BD70B5074C074D641B0A
:1021A000A41005D0013CA300EB589847002CF9D1AE
:1021B00000F060F870BDC04688360008843600081C
:1021C000F0B5D6464F4646469846244BC0B5060065
:1021D00018689A460F009146FFF7C6FF204B1D680E
:1021E000002D32D053466C6818681F2C30DC002E4E
:1021F0000CD1631C0234A4006B606751FFF7B6FF7B
:102200000020E0BCBA46B146A846F0BD4946882247
:10221000A300EB189950C42149008C46AC44614698
:10222000873AA240096891461143624611608421B1
:10223000424649005A50022EDBD129004A468D31D0
:10224000FF310B6813430B60D3E7064D1D60C9E7F0
:10225000FFF78CFF01204042D3E7C0460C0000206E
:10226000C0140020C4140020F8B5C046F8BC08BC57
:102270009E467047F8B5C046F8BC08BC9E467047FD
:10228000000000000000000000000000000000004E
:10229000000000000000000000000000000000003E
:1022A000000000000000000000000000000000002E
:1022B000000000000000000000000000000000001E
:1022C000000000000000000000000000000000000E
:1022D00000000000000000000000000000000000FE
:1022E00000000000000000000000000000000000EE
:1022F00000000000000000000000000000000000DE
:1023000000000000000000000000000000000000CD
:1023100000000000000000000000000000000000BD
:1023200000000000000000000000000000000000AD
:10233000000000000000000000000000000000009D
:10234000000000000000000000000000000000008D
:10235000000000000000000000000000000000007D
:1023600000000000000000000000000000E060200D
:1023700020202020E0E0200020F0F00000000000FD
:10238000000000000000000000000000000000004D
:10239000000000000000000000000000000000003D
:1023A0000000002020E0E02020000030300000008D
:1023B000000000000000000000000000000000001D
:1023C000000000202060E0E0202000000020A0604D
:1023D00020200000000000000000000000000000BD
:1023E00000000000000000000000000000000000ED
:1023F00000000000000000000000000000000000DD
:1024000000000000000000000000000000000000CC
:1024100000000000000000000000000000000000BC
:1024200000000000000000000000000000000000AC
:1024300000000000000180C070380E07010000801D
:1024400000FFFF04040202FEFC0000F0FC04020294
:10245000060CFCF00004FEFE04040202FEFC000078
:10246000387CC68282C67C3C0400000000FFFF006E
:10247000000004FEFE000004FEFE04040202FEFC56
:102480000000387CC68282C67C3C0400000000014B
:10249000070EF8F00C020100000002FEFE00000032
:1024A00002FEFE0000008CCE622212FEFC0004FE42
:1024B000FE04040202FEFC00000000000000000018
:1024C000000000000000000000000000000000000C
:1024D00000000000000000000000000000000000FC
:1024E00000000000000000000000000000000000EC
:1024F00000000000000000000000000004070704C6
:102500000404040404040603040707040000040789
:102510000704000003070404040203000004070783
:1025200004000004070704306B474646464646262B
:102530001C0307060403010000000407070400044D
:10254000070704000004070704306B474646464669
:1025500046261C00000000000404070704040000D5
:102560000000000307040404020707020000030739
:102570000404020707040407070400000407070413
:10258000000000000000000000000000000000004B
:10259000000000000000000000000000000000003B
:1025A000000000000000000000000000000000002B
:1025B000000000000000000000000000000000001B
:1025C000000000000000000000000000000000000B
:1025D00000000000000000000000000000000004F7
:1025E00004FCFC0404040404C40C1C000004FEFEEF
:1025F0000000000080C04040C08000000080C0405B
:1026000040C0800040F0F840400080C0C08040C022
:10261000C0000080804040C08080000080C0C0803A
:10262000804040C08000000000000000000000006A
:10263000000000000000000000000000000000009A
:10264000000000000000000000000000000000008A
:10265000000000000000000000000000000000007A
:10266000000000000000000000000000000000006A
:10267000000000000000000000000000000000005A
:10268000000000000000000000000000000000004A
:10269000000000000000000000000000000000003A
:1026A000000000000000008080FFFF8181818181A7
:1026B00087C0E0100080FFFF8000003F7FE2C2C2C1
:1026C000C24323003F7FE0C0C0402100007FFF8065
:1026D000804080FFFF80000000001E7FE08080803F
:1026E000417F1E0080FFFF80000080FFFF80000010
:1026F00000000000000000000000000000000000DA
:1027000000000000000000000000000000000000C9
:1027100000000000000000000000000000000000B9
:1027200000000000000000000000000000000000A9
:102730008080808080808080808080808080808099
:102740008080808080808080808080808080808089
:102750008080808080808080808080808080808079
:102760008080808080808080808080808080808069
:102770008080808080808080808080808080808059
:102780008080808080808080808080808080808049
:102790008080808080808080808080808080808039
:1027A0008080808080808080808080808080808029
:1027B0008080808080808080808080808080808019
:1027C0008080808080808080808080808080808009
:1027D00080808080808080808080808080808080F9
:1027E00080808080808080808080808080808080E9
:1027F00080808080808080800000000000000000D9
:10280000000000000000000000000000000080C088
:10281000C0E0E0E0E0E0E0F0F0F8F8F8F8F0E0C068
:102820008000000000000000000000000000000028
:10283000000000000000FF00000000000000000099
:102840000000000000000000000000000000000088
:102850000000000000000000000000000000000078
:102860000000000000000000000000000000000068
:102870000000000000000000000000000000000058
:102880000000000000000000000000000000000048
:102890000000000000000000000000000000000038
:1028A0000000000000000000000000000000000028
:1028B0000000000000000000000000000000000018
:1028C0000000000000000000000000000000000008
:1028D00000000080FCFFFFFFFFFFFFFFFFFFFFFF87
:1028E000FFFFFFFFFFFFFFFFFFE000000000000011
:1028F0000000000000000000000000000000FF00D9
:1029000000000000000000000000000000000000C7
:1029100000000000000000000000000000000000B7
:1029200000000000000000000000000000000000A7
:102930000000000000000000000000000000000097
:102940000000000000000000000000000000000087
:102950000000000000000000000000000000000077
:102960000000000000000000000000000000000067
:102970000000000000000000000000000000000057
:102980000000000000000000000000000000000047
:10299000000000000000000000003F7FFFFFFFFF7D
:1029A000FFFFFFFFFFFFFFFFFFFFFFFFFFFFFFFF37
:1029B000FFFF7F1C0000000000000000000000007E
:1029C000000000000000FF00000000000000000008
:1029D00000000000000181E1F13D0F0300FFFF2036
:1029E000101030E0C00000C0E020101020E0C00057
:1029F00000F0F020101030E0C00000C0E020101007
:102A000020F0F000000000FFFF0000F3F30000F0F2
:102A1000F020101030E0C00000C0E020101020F0C6
:102A2000F00001030F3CE0E0380F030100F0F0007C
:102A30000000F0F00000209090B0E0C00000F0F046
:102A400020101030E0C00000000000000000000076
:102A50000000000000000000000000000000000076
:102A6000000000000001070F9FFFFFFFFFFFFFFFB7
:102A7000FFFFFFFF9F8F0703000000000000000022
:102A80000000000000000000000000000000FF0047
:102A9000000000000000000000000000181E1711D8
:102AA00010101010001F1F000000001F1F00000763
:102AB0000F081010080F0700001F1F000000001F64
:102AC0001F0000078F18101088FF7F001010180FCC
:102AD0000700001F1F00001F1F000000001F1F0035
:102AE00000078F18101088FF7F00000000001F1FD4
:102AF0000000000000070F1810081F1F000E0F1124
:102B000010081F1F00001F1F000000001F1F0000F3
:102B100000000000000000000000000000000000B5
:102B20000000000000C0F0F8F8FCFCFEFEFFFFFF14
:102B3000FFFFFFFFFFFFFFFFFFFFFFFFFFFFFFFFA5
:102B4000FFFEFEFCFCF8F0E0C0000000000000000A
:102B5000000000000000FF00000000000000000076
:102B60000000000000000000000000000000000065
:102B70000000000000000000000000000000000055
:102B80000000000000000000000000000101010141
:102B90000100000000000000000000000000000034
:102BA0000000000000000000000001010101010020
:102BB0000000000000000000000000000000000015
:102BC0000000000000000000000000000000000005
:102BD00000000000000000000000000000000000F5
:102BE00040404040404040404040404040434747D4
:102BF0004F4F4F4F4F4F4F4F4F4F4F4F4F4F4F4FE5
:102C00004F4F4F4F4F4F4F4F4F4F4F4F4F4F4747E4
:102C10004340404040404040404040404040FF40F2
:102C200040404040404040404040404040404040A4
:102C30004040404040404040404040404040404094
:102C40004040404040404040404040404040404084
:102C50004040404040404040404040404040404074
:102C60004040404040404040404040404040404064
:102C70004040404040404040404040404040404054
:102C80004040404040404040404040404040404044
:102C90004040404040404040404040404040404034
:102CA0004040404040404040000000000000000024
:102CB0000000000000000000000080808080808014
:102CC000800000000000000000C0E0E0E0E0C0C0C4
:102CD000C0800000000000000000000000000000B4
:102CE000000000000000FF000000000000000000E5
:102CF00000000000000000000000000000000000D4
:102D000000000000000000000000000000000000C3
:102D100000000000000000000000000000000000B3
:102D200000000000000000000000000000000000A3
:102D30000000000000000000000000000000000093
:102D40000000000000000000000000000000000083
:102D50000000000000000000000000000000000073
:102D60000000000000000000000000000000000063
:102D700000000000000000000000000000F0FCFE69
:102D8000FE7F1F0F0F070F1F7FFFFEF8F0E0000010
:102D900000E1E1E3E3E3C7878F1F3FFFFEFCF8E0BC
:102DA0008000000000000000000000000000FF00A4
:102DB0000000000000000000808080000000000093
:102DC000000080C0C0C0C080000000000000000003
:102DD00000008080800000000080C0C0C0C0C080B3
:102DE000000000000080C0C0C0C0800000000000E3
:102DF0000080C0C0C0C080000000000080C0C0C013
:102E0000C08000000000000080C0C0C0C080000082
:102E10000000000080C0C0C0C080000000008080B2
:102E20008080808080808080000000808080808022
:102E30008080000000000000000000000000000092
:102E400000000000001F7FFFFFFFF0C00000000037
:102E5000F8FEFFFFDF8F03000001010303073F7F40
:102E60007F7E3800031F3F3F3F000000000000004E
:102E7000000000000000FF0000000000000003034D
:102E800001FFFF0000000000008FFFF16060F1FF14
:102E90008F000000E0FC6E2633333171E1800000CA
:102EA000000001606060F19F0F00003EFFC1808064
:102EB0008080C3FFFC0000FCFF070100000103FF4E
:102EC000FC00FCFF070100000103FFFC0000FCFF09
:102ED000070100000103FFFC00003EFFC18080806D
:102EE00080C3FFFC00000101010181E1F93F0F01F6
:102EF00000007C7F6361E1C1C101000000000000AF
:102F000000000000000000000000000000000001C0
:102F1000030F1F3F7FFEFCF8E0C3C78F1F1F3F7EDC
:102F20007C7CF87C7E3E1F3E3E7EFCF8F0F0E0C0EC
:102F3000E000000000000000000000000000FF00B2
:102F40000000000000000000007F7F000000000083
:102F50001F3F3160606060313F0E0000071F387016
:102F6000606060301F0F0000306060606060303F64
:102F70000F0000006061613131181E070100000779
:102F80001F3870606070381F0700071F387060605E
:102F900070381F070000071F3870606070381F0707
:102FA0000000006061613131181E0701000000401F
:102FB000707E1F03000000000030606060606030C1
:102FC0003F0F0000000000000000000000000000B3
:102FD00000000000000000000000000000000103ED
:102FE000070F1F1F3F7E7CFCF8F0F0E0E0E0E0E020
:102FF000E0E0F0F9FFFF7F3F1F000000000000004D
:10300000000000000000FF000000000000000000C1
:1030100000000000000000000000000000000000B0
:1030200000000000000000000000000000000000A0
:103030000000000000000000000000000000000090
:103040000000000000000000000000000000000080
:103050000000000000000000000000000000000070
:103060000000000000000000000000000000000060
:103070000000000000000000000000000000000050
:103080000000000000000000000000000000000040
:103090004040404040404040404040404040404030
:1030A0004040404040404040404040404040404020
:1030B00040414143434343434343434141404040F4
:1030C0004040404040404040404040404040FF4041
:1030D00040404040404040404040404040404040F0
:1030E00040404040404040404040404040404040E0
:1030F00040404040404040404040404040404040D0
:1031000040404040404040404040404040404040BF
:1031100040404040404040404040404040404040AF
:10312000404040404040404040404040404040409F
:10313000404040404040404040404040404040408F
:10314000404040404040404040404040404040407F
:10315000404040404040404000000000000000006F
:10316000000000000000000000000000000080805F
:10317000C0C0C0C0C0C0C0C0C0C0C0C0C0C08080CF
:10318000000000000000000000000000000000003F
:10319000000000000000FF00000000000000000030
:1031A000000000000000000000000000000000001F
:1031B0000000000000000000000000000000FCFC17
:1031C00000000000000000FCFC0000000000808007
:1031D0008080000000000000FCFC7CF0C0000000CB
:1031E00000FCFC0000000000808080808000000067
:1031F000000080800000808080000000000000004F
:1032000000000000000000000000000000000000BE
:1032100000000000000000000000000000000000AE
:10322000000000000000000000000000000000009E
:10323000C0F0F8FCFE7F1F0F0F0787C3C3E3E3E373
:10324000E3C3C387870F0F1F7FFEFCF8F0C00000A9
:103250000000000000000000000000000000FF006F
:10326000000000000000000000000000000000005E
:10327000000000000000000000000000000000004E
:10328000000000000000FFFF06060606060606FF17
:10329000FF0000F8FE3731313131333F3C00000090
:1032A000FFFF0001071F7CF0C0FFFF000000C0F31C
:1032B000311919191BFFFE000000FFFF0301010176
:1032C00003FFFE00000000000000000000000000FE
:1032D00000000000000000000000000000000000EE
:1032E00000000000000000000000000000000000DE
:1032F00000000000000000FFFFFFFF87000000FC4F
:10330000FEFF07030100000000010307FFFEFC00B1
:10331000000087FFFFFFFF0000000000000000002A
:10332000000000000000FF0000000000000000009E
:10333000000000000000000000000000000000008D
:10334000000000000000000000000000000007076F
:10335000000000000000000707000000030307064C
:103360000606060600000000070700000000000037
:103370000307070000000103060606020307070013
:103380000000070700000000000707000000000021
:10339000000000000000000000000000000000002D
:1033A000000000000000000000000000000000001D
:1033B0000000000000000000000000000000000706
:1033C0001F3FFFFFFCF0E0C083070F1E1C1C1C1CEE
:1033D0001C1C1E0F0783C0E0F0FCFFFF7F1F0700CF
:1033E0000000000000000000000000000000FF00DE
:1033F00000000000000000000000000000000000CD
:1034000000000003030303C3F37B3F0F030000FF2F
:10341000FFC0406060E0C0800000000080C06060CD
:103420006060C0C000000000E0E0C0406060E0C03C
:1034300080000000C0C0E0606060C0E0E00000000C
:1034400003030303C3F37B3F0F03000000FFFFC030
:10345000406060E0C0800000000080C0606060608C
:10346000C0C0000000E0E00000000000E0E000005C
:10347000000000000000000000000000000000004C
:103480000000000000000000000000010307070F1B
:103490001F3F7EFCF8F0E0E0F0F8FC7E3F1F0F07D6
:1034A0000703010000000000000000000000000011
:1034B000000000000000FF0000000000000000000D
:1034C0000000000000000000000080E0F8BC9F87C2
:1034D00081808080800000FFFF0000000000FFFF6F
:1034E0000000003EFFCDCC8C8C8C8C8F0F00000038
:1034F000FFFF0000000000FFFF00003FFFE18080B1
:103500008080C0FFFF000080E0F8BC9F8781808042
:103510008080000000FFFF0000000000FFFF0000AF
:10352000003FFFE180808080E17F3F00007FFFC09F
:10353000808080C0FFFF000000000000000000004D
:10354000000000000000000000000000000000007B
:103550000000000000000000000000000103030361
:103560000301000000000000000000000000000057
:103570000000000000000000000000000000FF004C
:10358000000000000000000000000000000000003B
:10359000000001010101010101010101010000011F
:1035A0000100000000000101000000000000010116
:1035B0000101010100000000010100000000000104
:1035C00001000000183131313130180F03000001C3
:1035D00001010101010101010101000000010100DF
:1035E00000000000010100000000000001010101D5
:1035F00000000000000000010101000001010000C6
:103600000000000000000000030406080C10182051
:103610003000000000000000010203040000000070
:103620000000000001020304060708091E1B000831
:103630004C1B0008521B00088A1B00085E1B000878
:103640008A1B00088A1B00088A1B0008641B0008EC
:10365000CE1A0008021B0008081B00087E1B000889
:10366000141B00087E1B00087E1B00087E1B000840
:04367000D61A00085E
:083674006CE8FF7F010000007B
:08367C0071210008E1020008C1
:04368400B502000883
:10368800000020000100000004000000BC1400201D
:04000005080006BD2C
:00000001FF
