:020000040800F2
:1000000000200020BD060008DD050008DF0500080F
:1000100000000000000000000000000000000000E0
:10002000000000000000000000000000E1050008E2
:100030000000000000000000E3050008E5050008DE
:100040000D0700080D0700080D0700080D07000840
:100050000D0700080D070008ED050008F70500086A
:10006000000000000D0700080D0700080D0700083C
:100070000D0700080D070008000000000D0700082C
:10008000000000000D070008000000000000000054
:100090000D070008000000000D0700080D0700080C
:1000A0000D0700080D0700080D0700080D070008E0
:1000B0000D0700080D070008000000000000000008
:1000C000002243088B4274D303098B425FD3030A97
:1000D0008B4244D3030B8B4228D3030C8B420DD3AA
:1000E000FF22090212BA030C8B4202D31212090238
:1000F00065D0030B8B4219D300E0090AC30B8B4276
:1001000001D3CB03C01A5241830B8B4201D38B0323
:10011000C01A5241430B8B4201D34B03C01A5241C8
:10012000030B8B4201D30B03C01A5241C30A8B420B
:1001300001D3CB02C01A5241830A8B4201D38B02F6
:10014000C01A5241430A8B4201D34B02C01A52419A
:10015000030A8B4201D30B02C01A5241CDD2C3090C
:100160008B4201D3CB01C01A524183098B4201D388
:100170008B01C01A524143098B4201D34B01C01A73
:10018000524103098B4201D30B01C01A5241C308EB
:100190008B4201D3CB00C01A524183088B4201D35A
:1001A0008B00C01A524143088B4201D34B00C01A46
:1001B0005241411A00D20146524110467047FFE7B2
:1001C00001B5002000F006F802BDC0460029F7D0B6
:1001D00076E770477047C046002B11D1002A0FD137
:1001E000002900D1002802D00021C943080007B42B
:1001F000024802A14018029003BDC046D9FFFFFF8C
:1002000003B4684601B5029801F0A8FE019B9E4622
:1002100002B00CBC7047C04610B5002903D100F0F5
:1002200007F8203002E0080000F002F810BDC046D8
:100230001C2101231B04984201D3000C10391B0A16
:10024000984201D3000A08391B09984201D30009DA
:10025000043902A2105C40187047C0460403020231
:100260000101010100000000000000000448054BEE
:1002700010B5834203D0044B002B00D0984710BD2B
:10028000AC130020AC130020000000000648074912
:10029000091A8B10C90FC91810B5491003D0044BA7
:1002A000002B00D0984710BDAC130020AC130020E9
:1002B0000000000010B5074C2378002B09D1FFF790
:1002C000D5FF054B002B02D0044800E000BF0123FE
:1002D000237010BDAC13002000000000E4220008D1
:1002E000054B10B5002B03D00449054800E000BFC2
:1002F000FFF7CCFF10BDC04600000000B013002087
:10030000E4220008F0B589B01422002103A801F00E
:10031000F1FE354BDA6A01263243DA62DA6A32409C
:100320000192019ADA6A02242243DA62DB6A2340EC
:100330000293029BA025ED050022E421280000F095
:1003400068FD2A4F00220321380000F062FD0423DB
:100350000393049605940024069403A9280000F052
:100360008BFC0823039388235B030493059403A960
:10037000280000F081FCE023039304960594069482
:1003800003A9280000F078FC032303930496059446
:10039000069403A9380000F06FFC80235B000393F0
:1003A0000494059403A9280000F066FC80231B0236
:1003B000039384239B030493059403A9280000F06E
:1003C0005BFC00220121062000F042FC062000F028
:1003D00043FC00220021072000F03AFC072000F037
:1003E0003BFC09B0F0BDC0460010024000040050C4
:1003F00010B51448144B0360144B43600023836012
:100400000122C260036143618361C361036200F042
:1004100015FD00280CD10B48002100F075FD0028C7
:1004200009D10848002100F09BFD002806D110BD2D
:1004300000F03EF8EFE700F03BF8F2E700F038F8A4
:10044000F5E7C046C813002000540040583D500056
:1004500010B586B004001422002101A801F04AFE64
:100460002268104B9A4201D006B010BD0E4CE26AD1
:1004700002231A43E262E26A13400093009BC02306
:100480000193AE3B02930F3B0493023B059301A9FA
:10049000064800F0F1FBA26B80239B031343A36388
:1004A000E2E7C04600540040001002400004005043
:1004B00072B6FEE700B59BB0342200210DA801F012
:1004C00019FE1422002108A801F014FE1C220021AC
:1004D00001A801F00FFE1A490A681A4B1A4080233E
:1004E0001B0113430B6002230D93013B10930F3349
:1004F0001193002316930DA800F0B4FD002819D124
:100500000F2308930E3B099300230A930B930C933C
:10051000002108A801F02CF800280DD1092301932F
:1005200000230393069301A801F034F9002805D1B4
:100530001BB000BDFFF7BCFFFFF7BAFFFFF7B8FF26
:1005400000700040FFE7FFFF70B500F0FDFAFFF715
:10055000B1FFFFF7D7FEFFF74BFF00F061F800F0A7
:10056000A7FAA024E40500220421200000F051FC99
:10057000FA25AD00280000F00DFB01220421200027
:1005800000F047FC280000F005FB002204212000B9
:1005900000F03FFC084B1B78012BFBD1074C0021DE
:1005A000200000F091FA0121200000F08DFA024BAA
:1005B00000221A70EEE7C0461C1400200000002044
:1005C000054B5A6B01210A435A63996B80225205ED
:1005D0000A439A637047C04600100240FEE7FEE7F8
:1005E0007047704710B500F0C3FA10BD10B5082071
:1005F00000F016FC10BD10B58020000200F010FCC9
:1006000010BD000080231B02984200D07047024BAF
:1006100001221A70FAE7C0461C140020704700003F
:1006200010B50C480C4B0360E1235B0243600023D0
:100630008360C36003610C2242618361C361036212
:10064000436201F027FC002800D110BDFFF730FF06
:10065000FBE7C046201400200038014010B586B0EA
:1006600004001422002101A801F044FD2268114B6E
:100670009A4201D006B010BD0F4B596B8022D201B7
:100680000A435A63D96A01221143D962DB6A1A40CC
:100690000092009BC023DB000193022302930133ED
:1006A000049301330593A02001A9C00500F0E4FAEA
:1006B000E0E7C04600380140001002400D48854682
:1006C000FFF7ACFF0C480D490D4A002302E0D45857
:1006D000C4500433C4188C42F9D30A4A0A4C00238C
:1006E00001E013600432A242FBD301F057FDFFF793
:1006F0002BFFFEE70020002000000020AC130020AC
:100700009C230008AC13002044160020FEE705E0FF
:100710000133DBB2002BFBD00138C0B2002801D07E
:100720000023F7E7704710B500F034FA10BD10B59C
:100730000024C8235B009C420CD28021A0204900E9
:10074000C00500F05FFB002806D00A20FFF7EBFF92
:100750000134EEE7002000E0012010BD70B5040078
:100760000120FFF7D4FF002515E0A0200022202162
:10077000C00500F04EFB6400E4B20120FFF7C7FFA4
:10078000A02001224021C00500F043FB0120FFF71B
:10079000BEFF0135EDB2072D12D8A0200022402166
:1007A000C00500F036FB0120FFF7B1FF63B2002B5C
:1007B000DBDAA02001222021C00500F02AFBDAE7C5
:1007C00070BD000070B505000E00A0200022802141
:1007D000C00500F01EFB104C00220121200000F09B
:1007E00018FB2878FFF7BAFF01350122012120000C
:1007F00000F00FFB002405E02878FFF7AFFF01357C
:100800000134E4B2731E9C42F6DBA0200122802159
:10081000C00500F0FEFA70BD00040050F0B585B0D0
:100820000AAC27780BAC267803AD44242C70687092
:10083000A97001AC452121706270A370E770267128
:1008400042392800FFF7BEFF05212000FFF7BAFF5D
:1008500005B0F0BD10B582B04E236C4623716071B7
:100860004F2323706170A270022101A8FFF7AAFF35
:1008700003216846FFF7A6FF02B010BD00B583B0A4
:1008800011480421FFF79EFF10480421FFF79AFF4B
:100890000F480221FFF796FF0E480221FFF792FF53
:1008A0000D480221FFF78EFF002301930093C7221A
:1008B00018210020FFF7B2FF0022C7210020FFF718
:1008C000C9FF03B000BDC0469C1300209813002050
:1008D00094130020901300208C13002010B50A4CB4
:1008E00000220221200000F094FA6420FFF71BFF91
:1008F00001220221200000F08CFA6420FFF713FF90
:10090000FFF7BCFF10BDC0460004005010B5FFF754
:1009100059FF10BDF8B505000C00FFF708FFA02631
:10092000F60500228021300000F073FA0B4F002200
:100930000121380000F06DFA2800FFF70FFF0122B7
:100940000121380000F065FA2000FFF707FF0122BF
:100950008021300000F05DFAF8BDC0460004005070
:1009600070B50400A025ED0500228021280000F0CC
:1009700050FA00220121064800F04BFA2000FFF750
:10098000EDFE01228021280000F043FA70BDC04630
:100990000004005010B5C0212220FFF7BBFF20202B
:1009A000FFF7DEFF10BD10B5C7212220FFF7B2FF11
:1009B0002020FFF7D5FFFF20FFF7D2FF10BD00007A
:1009C000F0B5C64600B588461600430704D0072395
:1009D000984305000835E8B2C508FFF7A8FEA02037
:1009E00000228021C00500F014FA124C00220121DF
:1009F000200000F00EFA2420FFF7B0FE01220121B2
:100A0000200000F006FA002706E03000FFF7A6FEFF
:100A10000134A542F9DC0137474501D20024F8E74B
:100A2000A02001228021C00500F0F3F980BCB84667
:100A3000F0BDC04600040050F0B5C64600B588467B
:100A40001500430704D00723984306000836F0B288
:100A5000C608FFF76CFEA02000228021C00500F030
:100A6000D8F9124C00220121200000F0D2F92420F4
:100A7000FFF774FE01220121200000F0CAF90027CF
:100A800007E02878FFF76AFE01350134A642F8DC5A
:100A90000137474501D20024F8E7A0200122802138
:100AA000C00500F0B6F980BCB846F0BD00040050A7
:100AB00010B5FFF713FF03481F21FFF727FFFFF7CC
:100AC00069FF10BD2023000870B505000C0000224E
:100AD000C7210020FFF7BEFE002C07D1FF22C8214E
:100AE000C820FFF76DFFFFF75EFF70BD2A00C82129
:100AF000C820FFF7A1FFF6E710B504000F4B1978E7
:100B0000FA208000FFF7DCFA01000D4B1868FFF7B0
:100B1000D7FA00F0ADF800280DD1032C01D901203F
:100B20000AE0013000222100404200F091F8054B1C
:100B30001C60002000E0012010BDC046A013002072
:100B400088130020A413002010B5084A1368402120
:100B50000B4313600320FFF7CFFF041E02D00124D4
:100B6000200010BDFFF72CFDFAE7C0460020024030
:100B7000034A1168034B1B785B1813607047C0462B
:100B8000A8140020A0130020014B18687047C0462D
:100B9000A814002070B50400FFF7F6FF0500631CE1
:100BA00002D0044B1B78E418FFF7EEFF401BA04275
:100BB000FAD370BDA013002070B5002811DB8308A4
:100BC000134DC0339B005C5903221040C000FC321F
:100BD00016008640B44389010A40824022435A519C
:100BE00070BD0F230340083B9B0806339B00094A56
:100BF000944663445C6803221040C000FC32150038
:100C00008540AC4389010A40824022435A60E7E7AD
:100C100000E100E000ED00E0013880235B04984231
:100C20000FD2094A50600948036A1B021B0AC021FF
:100C300009060B430362002393600733136000200F
:100C400070470120FCE7C04610E000E000ED00E046
:100C500010B5FFF7B1FF10BD002805DB1F220240D1
:100C600001239340014A13607047C04600E100E051
:100C700010B5FFF7D1FF10BDF0B5002356E0866830
:100C80005F000324BC40A643CC68BC40344384606E
:100C9000446894434E683609012232409A40224308
:100CA000426053E0DE080836B600375805321A4075
:100CB00092000F249440A7430C69944022003A43C9
:100CC000325056E0052600E00026A64034003C43A2
:100CD00002329200444E9451444A9768EA433E00DF
:100CE000AE434C68E40201D53E002E433F4CA66063
:100CF000E7683E0016404C68A40201D53E002E4332
:100D00003A4CE66067683E0016404C68A40301D583
:100D10003E002E43354C6660266832404C68E40342
:100D200001D52A003243314C226001330C68220085
:100D3000DA4057D001229A40250015401442F4D0E1
:100D40004E6803243440013C012C98D94C6803229E
:100D50002240032A08D0C4685E000322B2409443B4
:100D60008A68B2402243C2604C6803222240022AB1
:100D700098D004685E0003221700B740BC434F6858
:100D80003A40B240224302604C68C02292021442B0
:100D9000CBD0174C626B0126324362639A08941CD5
:100DA000A400114EA75903241C40A4000F26A640FE
:100DB000B743A026F605B04286D00E4EB0420BD007
:100DC0000D4EB0420AD00D4EB04209D00C4EB0428A
:100DD00000D177E7062678E7012676E7022674E752
:100DE000032672E7F0BDC046000001400004014048
:100DF000001002400004005000080050000C005099
:100E0000001C005003690B4201D0012070470020F4
:100E1000FCE7002A01D0816170478162FCE7000095
:100E200010B5054B5B69184200D110BD024B5861EB
:100E3000FFF7E8FBF9E7C0460004014010B5041EC7
:100E400059D04123C35C002B43D041232422E254D8
:100E50002268136801218B43136063682268274965
:100E60000B4013612268936825490B409360E36847
:100E7000012B34D0A168226884231B020B439360AA
:100E8000E368022B32D0226851681E4B0B4353603B
:100E90002268D3681A490B40D360236962691343FF
:100EA000A269120221681343CB60E369216A2268B8
:100EB0000B4313602268136801210B431360002366
:100EC000636441221F31A15423630132A3540020E3
:100ED00010BD40330022C254FFF7BAFAB5E7A1684B
:100EE000226880231B020B439360C9E7236880229A
:100EF00012015A60C7E70120EAE7C046FFFFFFF092
:100F0000FF7FFFFF00800002F0B54123C35C202B70
:100F100020D12033C35C012B1ED040240122025576
:100F2000412524234355066833689343336006689C
:100F300033680A4F3B403360066833680B433360C5
:100F400001680B6813430B602023435500230355AE
:100F50000020F0BD0220FCE70220FAE7FFEFFFFFD0
:100F6000F0B54123C35C202B1ED12033C35C012B81
:100F70001CD04024012202554125242343550668F4
:100F800033689343336006683368094F3B40090276
:100F90001943316001680B6813430B6020234355EC
:100FA000002303550020F0BD0220FCE70220FAE7F1
:100FB000FFF0FFFF10B5264BDA680C231340082B17
:100FC00042D00C2B07D0042B34D1214B1B68DB06FD
:100FD0003CD5204837E0910C0F230B401E49C85CDC
:100FE000920D03231A40541C194BDB68DB0309D50F
:100FF0001A4A0023002100F083FF22000023FFF79C
:10100000EBF820E0124B1B68DB0609D5114A0023E0
:10101000002100F075FF22000023FFF7DDF812E049
:101020000F4A0023002100F06BFF22000023FFF78E
:10103000D3F808E0064B5A68520B072313400133DC
:1010400080200002984010BD0448FCE70448FAE7FD
:101050000010024000093D00FC22000800127A0046
:101060000024F400F0B583B0041E00D15DE2C14B52
:10107000DA680C251540DE6880235B021E40036899
:10108000DB0736D5082D2CD00C2D28D063688022A4
:10109000520293424DD0A022D202934250D0B54B7F
:1010A0001A68B5490A401A601A68802149020A4044
:1010B0000192019A1A68B1490A401A606368002BCC
:1010C0004AD0FFF761FD0700AA4B1B689B0310D4B1
:1010D000FFF75AFDC01B6428F6D9032026E2002E34
:1010E000D4D0A44B1B689B0303D56368002B00D1AD
:1010F0001EE223689B0765D5E368042D3CD00C2DC8
:1011000038D0002B00D1B0E09A490A680920824308
:1011100013430B60FFF738FD0600964B1B685B0717
:1011200000D599E0FFF730FD801B0228F5D9032098
:10113000FCE1904A116880235B020B431360BDE71A
:101140008C4B19688022D2020A431A6019688022E7
:1011500052020A431A60B1E7FFF716FD0700854BFC
:101160001B689B03C5D5FFF70FFDC01B6428F6D98C
:101170000320DBE1002EC4D17E4A1268520702D55B
:10118000002B00D1D6E17B4E72687D490A4021696F
:1011900009020A437260326809218A4313433360AB
:1011A000FFF708FFF26812090F231340754AD35C5A
:1011B000D840754B1860754B1868FFF79DFC0028E8
:1011C00000D0B3E12368DB062DD5002D60D1694B3B
:1011D0001B689B0503D5A369002B00D1ACE1654AD0
:1011E00053686B490B40216A0B43536053681B02E1
:1011F0001B0AE16909060B435360216A490B01315F
:1012000080231B028B40D16809090F220A405D49E7
:101210008A5CD3405C4A13605C4B1868FFF76CFC37
:10122000002800D082E123681B077DD56369002B6D
:1012300067D0504A136D01210B431365FFF7A4FCDF
:1012400006004C4B1B6D9B076ED4FFF79DFC801B6B
:101250000228F6D9032069E146494B68484A134001
:101260002269120213434B60ACE7424A1368012122
:101270008B431360FFF788FC06003E4B1B685B073F
:10128000A0D5FFF781FC801B0228F6D903204DE191
:10129000A369002B22D0374A116880235B000B43DF
:1012A0001360FFF771FC0600324B1B689B0506D4E8
:1012B000FFF76AFC801B0228F6D9032036E12D4A8D
:1012C000536833490B40216A0B43536053681B0238
:1012D0001B0AE16909060B435360A4E7254A13681A
:1012E0002C490B401360FFF74FFC0600214B1B6895
:1012F0009B0598D5FFF748FC801B0228F6D90320F0
:1013000014E11C4A136D01218B431365FFF73CFC6C
:101310000600184B1B6D9B0706D5FFF735FC801B9D
:101320000228F6D9032001E123685B0700D48EE090
:10133000104B9B6BDB001BD40E4A916B80235B052B
:101340000B4393630126144B1B68DB0528D5A36868
:1013500080225200934237D0002B4DD1054B1A6D9D
:101360000C490A401A651A6D0C490A401A6531E0A9
:101370000026E8E700100240FFFFFEFFFFFFFBFF33
:10138000FFE0FFFF1023000888130020A4130020B3
:10139000FF1FFFFFFFFEFFFF00700040FFFBFFFF8E
:1013A0006B4A116880235B000B431360FFF7ECFB73
:1013B0000700674B1B68DB05C9D4FFF7E5FBC01BC3
:1013C0006428F6D90320B1E0624A116D80235B00E6
:1013D0000B431365A368002B28D0FFF7D5FB07004C
:1013E0005C4B1B6D9B0530D4FFF7CEFBC01B5A4BEB
:1013F0009842F5D9032099E0A022D200934209D067
:10140000544B1A6D55490A401A651A6D54490A40E1
:101410001A65DFE74F4B196D013AFF3A0A431A6527
:10142000196D802252000A431A65D3E7FFF7ACFB1F
:101430000700484B1B6D9B0507D5FFF7A5FBC01B9D
:10144000454B9842F5D9032070E0012E1AD0636A0B
:10145000002B00D172E00C2D4FD0022B18D03D4A4A
:10146000136840490B401360FFF78EFB0400394BB3
:101470001B689B013FD5FFF787FB001B0228F6D9AD
:10148000032053E0334A936B37490B409363DEE705
:10149000304A136833490B401360FFF775FB0500B2
:1014A0002C4B1B689B0106D5FFF76EFB401B0228E7
:1014B000F6D903203AE02749CB682C4A1340A26AA8
:1014C000E06A0243206B02431343CB600A68802327
:1014D0005B0413430B60FFF757FB04001D4B1B68B5
:1014E0009B0106D4FFF750FB001B0228F6D903200E
:1014F0001CE000201AE0002018E0012B20D0154B42
:10150000DA6880235B021340A16A8B421AD1F02370
:101510009B031340E16A8B4216D1C0231B041A407F
:10152000236B9A4212D1002000E0012003B0F0BDED
:101530000120FBE70120F9E70120F7E70020F5E7AC
:101540000120F3E70120F1E70120EFE70120EDE7BB
:10155000007000400010024088130000FFFEFFFFF3
:10156000FFFBFFFFFFFFFFFEFFFFFFEFFFFF02FF9D
:1015700070B505000C00002800D1D1E06A4B1A6854
:10158000012313408B4219D32B689B0706D5674A6A
:10159000D368F0218B43A9680B43D3602B68DB072A
:1015A0007BD56B68022B20D0032B40D0012B44D07D
:1015B0005E4A126892051DD4012099E05A4A1368C8
:1015C00001218B4323431360FFF7DEFA0600564BDD
:1015D0001A6801231340A342D6D0FFF7D5FA801B27
:1015E000534A9042F3D9032082E0504A1268920392
:1015F00000D497E04D49CA68032082431343CB606F
:10160000FFF7C2FA06006B68022B1CD0032B28D010
:10161000012B34D0454BDB680C221A423DD0FFF73A
:10162000B3FA801B424B9842F4D9032060E03F4A52
:1016300012689201DED401205AE03C4A1268520737
:10164000D8D4012054E0394BDA680C231340082B1E
:1016500023D0FFF799FA801B354A9042F3D9032033
:1016600046E0324BDA680C2313400C2B15D0FFF701
:101670008BFA801B2E4B9842F3D9032038E02B4B7A
:10168000DA680C231340042B07D0FFF77DFA801B88
:10169000274B9842F3D903202AE0234B1A680123F1
:1016A0001340A34225D82B685B0706D51F4AD36891
:1016B00020490B40E9680B43D3602B681B0707D513
:1016C0001A49CB681C4A13402A69D2001343CB60E5
:1016D000FFF770FC154BDA6812090F231340174A05
:1016E000D35CD840164B1860164B1868FFF704FA05
:1016F00070BD0D4A136801218B4323431360FFF72C
:1017000043FA0600084B1A6801231340A342CAD0CB
:10171000FFF73AFA801B064B9842F3D90320E7E71C
:101720000120E5E70120E3E700200240001002402D
:1017300088130000FFF8FFFFFFC7FFFF102300081A
:1017400088130020A4130020014B18687047C0467E
:101750008813002010B5FFF7F7FF044BDA68120A70
:1017600007231340024AD35CD84010BD001002404A
:101770000823000810B5FFF7E7FF044BDA68D20A28
:1017800007231340024AD35CD84010BD001002402A
:101790000823000870B5040003689B064ED5614B12
:1017A0009B6BDB007ED45F4A916B80235B050B4310
:1017B000936301265C4B1B68DB0575D5594B1B6891
:1017C00062685340C02189030B4205D0C0239B02AD
:1017D0001100194099427CD0524B196DC0239B02D5
:1017E00008001840194215D01A40824212D02368CE
:1017F0009B060FD54B4B1A6D4C4911401D6D802037
:10180000000328431865186D494D2840186519656F
:10181000D20565D423689B060ED56368C022920268
:101820001900114091426AD03E490B6D6268C02098
:101830008002024013430B65012E6AD02368DB0748
:1018400006D5384AD36C03218B43A1680B43D3647C
:1018500023689B0706D5334AD36C0C218B43E16880
:101860000B43D36423685B0706D52E4AD36C3149FA
:101870000B4021690B43D36423681B0706D5294A13
:10188000D36C2D490B4061690B43D36423681B065D
:1018900045D5244AD36C29490B40A1690B43D36435
:1018A00000203DE0002685E71F4A116880235B0089
:1018B0000B431360FFF768F905001B4B1B68DB0542
:1018C00000D57BE7FFF760F9401B6428F5D90320BA
:1018D00026E0144B1B689B0300D47DE701201FE02A
:1018E000FFF752F905000F4B1B6D9B0592D4FFF7D4
:1018F0004BF9401B124B9842F5D9032010E00949DF
:101900000A6810480240C0208003034013430B6064
:101910008AE7044A936B0C490B4093638EE70020DF
:1019200070BDC0460010024000700040FFFFFCFF89
:10193000FFFFF7FFFFF3FFFFFFCFFFFFFFFFF3FF07
:1019400088130000FFFFCFFFFFFFFFEF10B5EFF39D
:10195000108C012282F3108801680B68124C23401E
:101960000B608CF31088EFF3108C82F31088016801
:101970008B6893438B608CF31088036E012B06D029
:1019800080232022C25000230366836610BDEFF33C
:10199000108183F31088026813683234FF34A34344
:1019A000136081F31088EBE7DFFEFFFFD0B5040082
:1019B00083680269134342691343C2691343016890
:1019C0000A689448024013430B60226853689249A6
:1019D0000B40E1680B435360A16922688F4B9A4228
:1019E00001D0236A194393688D4803400B439360E9
:1019F00022688C4B9A4216D08B4B9A4224D0874B4C
:101A00009A4232D0102385498A425CD0E069802214
:101A10001202904200D192E0082B00D9F3E09B0023
:101A2000824AD3589F46824BD96C03230B40022B2A
:101A300033D005D8002B32D0012B32D10333E2E76B
:101A4000032B30D10533DEE7794BD96C0C230B40E7
:101A5000082B2AD005D8002B29D0042BD3D0102353
:101A6000D1E70C2B25D1043BCDE7714BDB6CC021BA
:101A700009010B40802109018B421CD007D8002BA3
:101A80001BD08021C9008B4219D10423BBE7C021A0
:101A900009018B4215D10823B5E70223B3E70123DF
:101AA000B1E71023AFE71023ADE70223ABE7002334
:101AB000A9E71023A7E70223A5E70023A3E7102344
:101AC000A1E710239FE7042B34D00BD8002B10D0B4
:101AD000022B05D1564B1B68DB062ED455480DE072
:101AE00001206DE0082B02D18020000206E00120D9
:101AF00066E0FFF72FFE002800D176E06268530011
:101B00009B18834200D972E01303834200D270E035
:101B1000070E060250080021801979410023FEF7C4
:101B20005BFB454BC218454B9A4264D82368D8608A
:101B3000002045E0FFF73EFADDE74148DEE7082BED
:101B40005BD89B003F4AD3589F46FFF703FE00280F
:101B500055D0400061684B08C018FEF7B1FA02008A
:101B6000103A394B9A424CD882B20F239A4340081C
:101B7000083B034013432268D360002020E0FFF7B6
:101B8000F9FDE4E72A4B1B68DB0604D42948E0E7AB
:101B9000FFF710FADBE72A48DBE7FFF7DBFD002859
:101BA00033D061684B081818FEF78AFA0200103A21
:101BB000254B9A422BD823680004000CD8600020E3
:101BC0000023A366E366D0BDFFF7D4FDE7E7184B1B
:101BD0001B68DB0607D41748E3E7FFF7EBF9DEE7FE
:101BE00080200002DDE71648DBE70020E8E701205F
:101BF000E6E70120E4E70120E2E70120E0E700203A
:101C0000DEE70120DCE70120DAE70020D8E7012049
:101C1000D6E7C046F369FFEFFFCFFFFF0048004063
:101C2000FFF4FFFF0038014000440040402300085B
:101C3000001002400024F40000FDFFFFFFFC0F0035
:101C400000093D0064230008EFFF0000436ADB0742
:101C500006D5026853682C490B40816A0B435360D8
:101C6000436A9B0706D50268536828490B40C16A3E
:101C70000B435360436A5B0706D5026853682449E7
:101C80000B40016B0B435360436A1B0706D5026888
:101C9000536820490B40416B0B435360436ADB069A
:101CA00006D5026893681C490B40816B0B43936017
:101CB000436A9B0606D50268936818490B40C16BBE
:101CC0000B439360436A5B060BD502685368144963
:101CD0000B40016C0B435360026C80235B039A4200
:101CE0000AD0436A1B0606D5026853680D490B40AB
:101CF000816C0B4353607047026853680A490B407C
:101D0000416C0B435360ECE7FFFFFDFFFFFFFEFF5D
:101D1000FFFFFBFFFF7FFFFFFFEFFFFFFFDFFFFF87
:101D2000FFFFEFFFFFFFF7FFFFFF9FFFF8B5CE4676
:101D3000474680B506000D0017009946089B984657
:101D40003368DC692C40641B63425C41BC422FD188
:101D500043460133F4D0FEF717FF4B46C01A404507
:101D60002BD84346002B2AD033681A685207E7D590
:101D7000DA69120710D4DA691205E1D5802212015E
:101D80001A623000FFF7E2FD84232022F2500C3B60
:101D90000022F25403200CE008241C623000FFF7FC
:101DA000D5FD8423F4500C3B0022F254012000E0C6
:101DB0000020C0BCB946B046F8BD0320F9E70320B7
:101DC000F7E7000030B583B0040084230022C2503E
:101DD000FEF7DAFE050023681B681B070FD4236893
:101DE0001B685B0729D42023E3678022A3500023CC
:101DF00023666366083AA354002003B030BD8021F7
:101E0000224B00930300002289032000FFF78EFF7E
:101E10000028E4D0EFF31081012383F310882268B7
:101E2000136880208343136081F310882023E367C5
:101E300058330022E2547D38DFE78021134B0093B2
:101E40002B000022C9032000FFF770FF0028CAD032
:101E5000EFF31080012282F3108821680B680C4D8B
:101E60002B400B6080F31088EFF3108082F3108812
:101E700021688B6893438B6080F3108880231F3226
:101E8000E250083B0022E2540320B6E7FFFFFF01C7
:101E9000DFFEFFFF10B5041E2ED0C36F002B21D034
:101EA0002423E3672268136801218B431360200019
:101EB000FFF77CFD012814D0636A002B18D122683B
:101EC00053680E490B405360226893682A218B4364
:101ED00093602268136829390B4313602000FFF7D1
:101EE00071FF10BD78330022C254FEF7B7FBD7E76D
:101EF0002000FFF7ABFEE2E70120F2E7FFB7FFFFAC
:101F0000F0B5CE469946030C9C46130447461B0C7D
:101F10001D000E0061460404240C80B50700100C5F
:101F20004B436543414360432C0CC01824188C4636
:101F3000A34203D980235B029846C44449467943AF
:101F40005643230C2D042D0C891963442404601975
:101F5000C918C0BCB946B046F0BDC046F0B557463A
:101F60004E464546DE46E0B504000D0092469946D1
:101F700083B08B4230D82DD049465046FEF74CF9FD
:101F8000290006002000FEF747F9331A9846203B47
:101F900034D49B4653465A46934042461F0053460C
:101FA00093401E00AF423BD8AF4200D179E05B4680
:101FB000A41BBD41002B00DA76E000220023009232
:101FC000019301235A4693400193012342469340D3
:101FD000009329E08242CFD900220023009201938E
:101FE0000C9B002B01D01C605D600098019903B030
:101FF000F0BCBB46B246A946A046F0BD42469B4651
:1020000020239B1A5246DA40414613004A468A4032
:10201000170042461F43534693401E00AF42C3D9A8
:1020200000220023009201934346002BD8D0FB07E7
:1020300072081A4346467B080EE0AB4201D1A24229
:102040000CD8A41A9D41012024196D410021013EA4
:1020500024184D41002E06D0AB42EED9013E241982
:102060006D41002EF8D1009801995B460019694135
:10207000002B24DB2B005A464446D3402A00E24082
:102080001C005B461500002B2ADB26009E40330017
:1020900026004746BE403200801A994100900191C7
:1020A0009EE7A342BCD882E74246202300219B1A28
:1020B0000022009101920122DA40019285E7424616
:1020C00020239B1A2A0046469A402300F3404446A8
:1020D00013432A00E2401C005B461500002BD4DAB3
:1020E00042462F002023260097409B1ADE403B00EB
:1020F0003343CDE7F0B50500830749D0541E002ACD
:1021000045D003000326CAB202E00135013C3ED3AC
:1021100001332A703342F8D1032C30D9FF220A4010
:102120001502AD182A04AD180F2C34D92700103F22
:102130003F093E01B4461E001A0010366644156081
:1021400055609560D56010329642F8D101373F0155
:10215000DB190F270C22274022403C00002A0ED01A
:102160003E1FB608B400A4461A001C1D644420C2D9
:10217000A242FCD103240136B6009B193C40002C3E
:1021800005D0C9B21C19197001339C42FBD1F0BDB6
:1021900003001400C0E72700E2E7C04670B50D4B0E
:1021A0000D4D5E1BB610AB4205D0002408CD0134A6
:1021B0009847A642FAD800F095F8084B084D5E1BE8
:1021C000B610AB4205D0002408CD01349847A64292
:1021D000FAD870BD902300089023000898230008C7
:1021E000902300087047C0467047C046034B10B5A7
:1021F000002B02D0024800F005F810BD00000000DE
:102200001522000810B5010000230022002000F074
:1022100015F810BD70B5074C074D641BA41005D010
:10222000013CA300EB589847002CF9D100F060F86E
:1022300070BDC0469C23000898230008F0B5D64620
:102240004F4646469846244BC0B5060018689A4645
:102250000F009146FFF7C6FF204B1D68002D32D0BE
:1022600053466C6818681F2C30DC002E0CD1631CA0
:102270000234A4006B606751FFF7B6FF0020E0BC9A
:10228000BA46B146A846F0BD49468822A300EB18DD
:102290009950C42149008C46AC446146873AA2401B
:1022A0000968914611436246116084214246490003
:1022B0005A50022EDBD129004A468D31FF310B687E
:1022C00013430B60D3E7064D1D60C9E7FFF78CFF92
:1022D00001204042D3E7C046A8130020B0140020DC
:1022E000B4140020F8B5C046F8BC08BC9E46704740
:0C22F000F8B5C046F8BC08BC9E4670471C
:1022FC00030406080C101820300000000000000039
:10230C0001020304000000000000000001020304AD
:10231C00060708093266664466AA118008111881FE
:10232C00181188118811880000FFFFFFFF5FAFFFB5
:10233C00FF2F00009A1B0008C81B0008CE1B0008CA
:10234C00061C0008DA1B0008061C0008061C000806
:10235C00061C0008E01B00084A1B00087E1B000836
:10236C00841B0008FA1B0008901B0008FA1B0008CD
:0C237C00FA1B0008FA1B0008521B0008A6
:08238800D4FBFF7F01000000FF
:08239000ED210008E102000844
:04239800B502000882
:10239C00FFFFFFFFFFFFFFFFFFFFFFFFFFFFFFFF41
:1023AC00FFFFFFFFFFFFFFFFFFFFFFFFFFFFFFFF31
:1023BC00FFFFFFFFFFFFFFFFFFFFFFFFFFFFFFFF21
:1023CC00FFFFFFFFFFFFFFFFFFFFFFFFFFFFFFFF11
:1029AC00FF803FF803FFFFFFFFFFFFFFFFFFFFFE6E
:1029BC00007FFFFFFFFFFFFFFFFF803FF801FFFFDE
:1029CC00FFFFFFFFFFFFFFFFFE007FFFFFFFFFFF8B
:1029DC00FFFFFFC03FF801FFFFFFFFFFFFFFFFFFFF
:1029EC00FFFE003FFFFFFFFFFFFFFFFFC01FF801CF
:1029FC00FFFFFFFFFFFFFFFFFFFFFF003FFFFFFF9A
:102A0C00FFFFFFFFFFC01FFC01FFFFFFFFFFE00FF9
:102A1C00FFFFFFFF003FFFFFFFFFFFFFFFFFC01F98
:102A2C00FC00000000003FE00F803FFFFF003FFF75
:102A3C00FFFFFFFFFFFFFFC01FFC00000000003F77
:102A4C00E00F803FFFFF003FFFFFFFFFFFFFFFFF97
:102A5C00C01FFC00000000003FF00F803FFFFF0094
:102A6C003FFFFFFFFFFFFFFFFFE00FFC0000000038
:102A7C00001FF00FC03FFFFF001FFFFFFFFFFFFF16
:102A8C00FFFFE00FFC00000000001FF000003FFF04
:102A9C00FF801FFFFFFFFFFFFFFFFFE00FFE0000A7
:102AAC000000001FF000003FFFFF801FFFFFFFFF33
:102ABC00FFFFFFFFE00FFE00000000001FF0000012
:102ACC001FFFFF000FFFFFFFFFFFFFFFFFE00FFEE9
:102ADC00007FE007FFFFF000001000000000000F77
:102AEC00FFFFFFFFFFFBF00FFE007FF007FFFFF87B
:102AFC0000001000000000000FFFFFFFFFFFF9F0C7
:102B0C0007FE007FF007FFFFF80000100000000038
:102B1C00000FFFFFFFFFFFF9F007FF007FF007FF3B
:102B2C00FFF800001000000000000FFFFFFFFFFF88
:102B3C00F8F007FF007FF003FFFFF800000800002B
:102B4C0000000007FFFFFFFFFFF87007FF007FF09A
:102B5C0003FFFFF8000008000000000007FFFFFF64
:102B6C00FFFFF87007FF003FF003FFFFFC03E008D6
:102B7C00000000000007FFFFFFFFFFF83807FF0011
:102B8C003FF803FFFFFC03E008000000000007FF14
:102B9C00FFFFFFFFF83803FF00000000001FFC03DD
:102BAC00F008000000000007FFFFFFFFFFF818030C
:102BBC00FF80000000001FFC01F00FFFFFE007FF8B
:102BCC00FFFFFFFFFFFFF01803FF80000000001F56
:102BDC00FC01F007FFFFE007FFFFFFFFFFFFFFF027
:102BEC000803FF80000000000FFC01F007FFFFE06E
:102BFC0007FFFFFFFFFFFFFFF008039F80000000AF
:102C0C00000FFE01F007FFFFE007FFFFFFFFFFFFD4
:102C1C00FFF804018F80000000000FFE01F007FF99
:102C2C00FFE003FFFFFFFFFFFFFFF800010780003D
:102C3C000000000FFE00F80780000000000FFFFFEF
:102C4C00FFFFFFFC000103C0000000000FFE00F8B6
:102C5C0007C0000000000FFFFFFFFFFFFE00000198
:102C6C00C01FFC00FFFFFE00F803C0000000000FB7
:102C7C00FFFFFFFFFFFF000000C00FFC00FFFFFE87
:102C8C0000F803C0000000000FFFFFFFFFFFFF0074
:102C9C000000C00FFE00FFFFFF00F803C0000000A3
:102CAC000007FFFFFFFFFFFF800001C00FFE00FFCA
:102CBC00FFFF00FC03C00000000007FFFFFFFFFF49
:102CCC00FFC00001E00FFE00FFFFFF007C03E000EF
:102CDC0000000007FFFFFFFFFFFFC00003E00FFE37
:102CEC00007FFFFF000001E00000000007FFFFFF76
:102CFC00FFFFFFE00007E00FFE007FFFFF00000179
:102D0C00E001F800FFFFFFFFFFFFFFFFE0000F6097
:102D1C0007FE007FFFFF800001F001F801FFFFFFBD
:102D2C00FFFFFFFFFFF0001F200000000003FF80EB
:102D3C000001F800F800FFFFFFFFFFFFFFFFF800A6
:102D4C003F000000000003FF800001F800FC00FFC2
:102D5C00FFFFFFFFFFFFFFF8007F000000000003F4
:102D6C00FF800001FC007C00FFFFFFFFFFFFFFFF67
:102D7C00FC007F000000000003FF800000FE003C10
:102D8C0000FFFFFFFFFFFFFFFFFC007F00000000C4
:102D9C000001FF800000FF001C00FFFFFFFFFFFF92
:102DAC00FFFFFE007E000000000001FFC00000FFDE
:102DBC00001FFFFFFFFFFFFFFFFFFFFE003E0000B5
:102DCC0000000001FFC03E00FF800FFFFFFFFFFF70
:102DDC00FFFFFFFF000000000000000001FFC01F0C
:102DEC0000FF8007FFFFFFFFFFFFFFFFFF0000005A
:102DFC000003FF801FFFFFC01F00C0000000000089
:102E0C007FFFFFFFFFFF0000000003FF801FFFFF9D
:102E1C00C01F004000000000007FFFFFFFFFFF000D
:102E2C0000000001FF801FFFFFC01F0040000000DA
:102E3C0000007FFFFFFFFFFF0000000001FFC01F2D
:102E4C00FFFFE01F004000000000007FFFFFFFFFBE
:102E5C00FF8000000001FFC01FFFFFE01F8060002B
:102E6C00000000007FFFFFFFFFFF8000000001FF5C
:102E7C00C01FFFFFE00F806000000000007FFFFF1D
:102E8C00FFFFFF8000000001FFC00FFFFFE00F807D
:102E9C002000000000003FFFFFFFFFFF800000202C
:102EAC0000FFC00FFFFFE00F802000000000003F7C
:102EBC00FFFFFFFFFFFFC01FF000000000003FF00E
:102ECC000F803FFE001FFFFFFFFFFFFFFFFFFFE034
:102EDC001FF800000000003FF00F803FFF001FFFB5
:102EEC00FFFFFFFFFFFFFFFFE00FF80000000000F7
:102EFC003FF00FC03FFF800FFFFFFFFFFFFFFFFF03
:102F0C00FFE00FFC00000000003FF007C03803801A
:102F1C0007FF803FFFFFFFFFFFFFE00FFE000000F9
:102F2C0000003FF007C01803C007FF803FFFFFFF02
:102F3C00FFFFFFE00FFE00000000001FF007C018AD
:102F4C0001C003FF801FFFFFFFFFFFFFE00FFF002B
:102F5C00000000001FF800001801E003FF801FFFB5
:102F6C00FFFFFFFFFFF007FF801FFC07FFFFF800CC
:102F7C00001801E01FFF801FFFFFFFFFFFF000079D
:102F8C00FF801FFE03FFFFF800001C000000000084
:102F9C001FFFFFFFFFFFF00007FFC00FFC00FFFF4C
:102FAC00F800001C00000000001FFFFFFFFFFFF0F7
:102FBC0000000FC00FFC007FFFF800000C000000A9
:102FCC0000001FFFFFFFFFFFF0000007E007F80005
:102FDC007FFFF800000C00000000000FFFFFFFFF58
:102FEC00FFF000000FE007F800FFFFFC00000C00F2
:102FFC00000000000FFFFFFFFFFFF000000FF003C9
:10300C00F000FFFFFC00000C00000000000FFFFFB1
:10301C00FFFFFFF000000FF003F001FFFFFFFFFFC9
:10302C00FE00000000000FFFFFFFFFFFF000000F8D
:10303C00F801E001FFFFFFFFFFFE00000000000FA2
:10304C00FFFFFFFFFFFF00000FF801E003FFFFFF92
:10305C00FFFFFE000000000007FFFFFFFFFFFFFF68
:10306C00C00FFC00E003FFFFFFFFFFFFFFFFFFFFB0
:10307C00FFFFFFFFFFFFFFFFFFFF8FFC03FC07FFBE
:10308C00FFFFFFFFFFFFFFFFFFFFFFFFFFFFFFFF44
:10309C00FFFFFFFFFE3FFF0FFFFFFFFFFFFFFFFFE5
:1030AC00FFFFFFFFFFFFFFFFFFFFFFFFFFFFFFFF24
:1030BC00CFFFFFFFFFFFFFFFFFFFFFFFFFFFFFFF44
:1030CC00FFFFFFFFFFFFFFFFFFFFFFFFFFFFFFFF04
:1030DC00FFFFFFFFFFFFFFFFFFFFFFFFFFFFFFFFF4
:1030EC00FFFFFFFFFFFFFFFFFFFFFFFFFFFFFFFFE4
:1030FC00FFFFFFFFFFFFFFFFFFFFFFFFFFFFFFFFD4
:10371C00FFFFFFFFFFFFFFFF000020001101000073
:10372C003B0800003A1A00000CD7D69D01C70000D8
:0C373C000100000004000000AC1400209C
:04000005080006BD2C
:00000001FF
